:020000040000fa
:080000000002040000000000f2
:020000040000fa
:04000800fe030000f3
:020000040000fa
:04000c00fe030000ef
:020000040000fa
:04001000fe030000eb
:020000040000fa
:04001400fe030000e7
:020000040000fa
:04001800fe030000e3
:020000040000fa
:04001c00fe030000df
:020000040000fa
:04002000fe030000db
:020000040000fa
:04002400fe030000d7
:020000040000fa
:04002800fe030000d3
:020000040000fa
:04002c00fe030000cf
:020000040000fa
:04003000fe030000cb
:020000040000fa
:0400340002030000c3
:020000040000fa
:04003800fe030000c3
:020000040000fa
:04003c00fe030000bf
:020000040000fa
:04004000fe030000bb
:020000040000fa
:04004400fe030000b7
:020000040000fa
:04004800fa020000b8
:020000040000fa
:04004c00fe030000af
:020000040000fa
:04005000fe030000ab
:020000040000fa
:04005400ba030000eb
:020000040000fa
:040058009003000011
:020000040000fa
:04005c006c03000031
:020000040000fa
:04006000fe0300009b
:020000040000fa
:04006400fe03000097
:020000040000fa
:04006800fe03000093
:020000040000fa
:04006c00fe0300008f
:020000040000fa
:04007000fe0300008b
:020000040000fa
:04007400fe03000087
:020000040000fa
:04007800fe03000083
:020000040000fa
:04007c00fe0300007f
:020000040000fa
:04008000fe0300007b
:020000040000fa
:04008400fe03000077
:020000040000fa
:04008800fe03000073
:020000040000fa
:04008c00fe0300006f
:020000040000fa
:04009000fe0300006b
:020000040000fa
:040094004203000023
:020000040000fa
:04009800fe03000063
:020000040000fa
:04009c00fe0300005f
:020000040000fa
:0400a000fe0300005b
:020000040000fa
:0400a400fe03000057
:020000040000fa
:0400a800fe03000053
:020000040000fa
:0400ac00fe0300004f
:020000040000fa
:0400b000fe0300004b
:020000040000fa
:0400b400fe03000047
:020000040000fa
:0400b800fe03000043
:020000040000fa
:0400bc00fe0300003f
:020000040000fa
:0400c000fe0300003b
:020000040000fa
:0400c400fe03000037
:020000040000fa
:0400c800fe03000033
:020000040000fa
:0400cc00fe0300002f
:020000040000fa
:0400d000fe0300002b
:020000040000fa
:0400d400fe03000027
:020000040000fa
:0400d800fe03000023
:020000040000fa
:0400dc00fe0300001f
:020000040000fa
:0400e000fe0300001b
:020000040000fa
:0400e400fe03000017
:020000040000fa
:0400e800fe03000013
:020000040000fa
:0400ec00fe0300000f
:020000040000fa
:0400f000fe0300000b
:020000040000fa
:0400f400fe03000007
:020000040000fa
:0400f800fe03000003
:020000040000fa
:0400fc00fe030000ff
:020000040000fa
:04010000fe030000fa
:020000040000fa
:04010400fe030000f6
:020000040000fa
:04010800fe030000f2
:020000040000fa
:04010c00fe030000ee
:020000040000fa
:04011000fe030000ea
:020000040000fa
:04011400fe030000e6
:020000040000fa
:04011800fe030000e2
:020000040000fa
:04011c00fe030000de
:020000040000fa
:04012000fe030000da
:020000040000fa
:04012400fe030000d6
:020000040000fa
:04012800fe030000d2
:020000040000fa
:04012c00fe030000ce
:020000040000fa
:04013000fe030000ca
:020000040000fa
:04013400fe030000c6
:020000040000fa
:04013800fe030000c2
:020000040000fa
:04013c00fe030000be
:020000040000fa
:04014000fe030000ba
:020000040000fa
:04014400fe030000b6
:020000040000fa
:04014800fe030000b2
:020000040000fa
:04014c00fe030000ae
:020000040000fa
:04015000fe030000aa
:020000040000fa
:04015400fe030000a6
:020000040000fa
:04015800fe030000a2
:020000040000fa
:04015c00fe0300009e
:020000040000fa
:04016000fe0300009a
:020000040000fa
:04016400fe03000096
:020000040000fa
:04016800fe03000092
:020000040000fa
:04016c00fe0300008e
:020000040000fa
:04017000fe0300008a
:020000040000fa
:04017400fe03000086
:020000040000fa
:04017800fe03000082
:020000040000fa
:04017c00fe0300007e
:020000040000fa
:04018000fe0300007a
:020000040000fa
:04018400fe03000076
:020000040000fa
:04018800fe03000072
:020000040000fa
:04018c00fe0300006e
:020000040000fa
:04019000fe0300006a
:020000040000fa
:04019400fe03000066
:020000040000fa
:04019800fe03000062
:020000040000fa
:04019c00fe0300005e
:020000040000fa
:0401a000fe0300005a
:020000040000fa
:0401a400fe03000056
:020000040000fa
:0401a800fe03000052
:020000040000fa
:0401ac00fe0300004e
:020000040000fa
:0401b000fe0300004a
:020000040000fa
:0401b400fe03000046
:020000040000fa
:0401b800fe03000042
:020000040000fa
:0401bc00fe0300003e
:020000040000fa
:0401c000fe0300003a
:020000040000fa
:0401c400fe03000036
:020000040000fa
:0401c800fe03000032
:020000040000fa
:0401cc00fe0300002e
:020000040000fa
:0401d000fe0300002a
:020000040000fa
:0401d400fe03000026
:020000040000fa
:0401d800fe03000022
:020000040000fa
:0401dc00fe0300001e
:020000040000fa
:0401e000fe0300001a
:020000040000fa
:0401e400fe03000016
:020000040000fa
:0401e800fe03000012
:020000040000fa
:0401ec00fe0300000e
:020000040000fa
:0401f000fe0300000a
:020000040000fa
:0401f400fe03000006
:020000040000fa
:0401f800fe03000002
:020000040000fa
:0401fc00fe030000fe
:020000040000fa
:04020000fe030000f9
:020000040000fa
:04020400fe030000f5
:020000040000fa
:04020800fe030000f1
:020000040000fa
:04020c00fe030000ed
:020000040000fa
:04021000fe030000e9
:020000040000fa
:04021400fe030000e5
:020000040000fa
:04021800fe030000e1
:020000040000fa
:04021c00fe030000dd
:020000040000fa
:04022000fe030000d9
:020000040000fa
:04022400fe030000d5
:020000040000fa
:04022800fe030000d1
:020000040000fa
:04022c00fe030000cd
:020000040000fa
:04023000fe030000c9
:020000040000fa
:04023400fe030000c5
:020000040000fa
:04023800fe030000c1
:020000040000fa
:04023c00fe030000bd
:020000040000fa
:04024000fe030000b9
:020000040000fa
:04024400fe030000b5
:020000040000fa
:04024800fe030000b1
:020000040000fa
:04024c00fe030000ad
:020000040000fa
:04025000fe030000a9
:020000040000fa
:04025400fe030000a5
:020000040000fa
:04025800fe030000a1
:020000040000fa
:04025c00fe0300009d
:020000040000fa
:04026000fe03000099
:020000040000fa
:04026400fe03000095
:020000040000fa
:04026800fe03000091
:020000040000fa
:04026c00fe0300008d
:020000040000fa
:04027000fe03000089
:020000040000fa
:04027400fe03000085
:020000040000fa
:04027800fe03000081
:020000040000fa
:04027c00fe0300007d
:020000040000fa
:04028000fe03000079
:020000040000fa
:100400006f4221000eff2c000e018800000000004a
:10041000000020000000e000020032000001200087
:100420002002880014000700f60007000000e0002a
:1004300003003a00a0db2200010020000200370088
:100440000000200001002000810f70000100320038
:100450000f000700000020000000e0000200320052
:100460000000020000000000de1902000000000091
:100470000040da000000fe00200020000000e00044
:1004800002003200100020009001880000000600e9
:10049000a1028800800478000000eb001f003700f4
:1004a000e284440054a0b4009905ba00e2844400f8
:1004b00054a0b4009906ba00e284440054a0b400e9
:1004c0000006eb00476fde00fd07b200ae018800ba
:1004d000636ce10003003a000ad801000000eb0061
:1004e0000e003700606ce10008003a00004deb00a0
:1004f0000a05e800020039003420ec000af0a000f0
:100500008b05e900f9ff3e00040037006168e10057
:10051000010032000086eb000b00070019c7ba008b
:100520000e04e0001905ba0003003a000a00e000da
:10053000dbff3a0000000600fe07b200ae028800b2
:100540008a047800f5ff37000cd0a300e20f4d00bd
:100550001c003b0089027800354dba000a05e8000e
:10056000020039003420ec000af0a0008b05e900fd
:100570000f003200254dba000a05e80002003900dc
:100580003420ec000af0a0008b05e90008003200de
:100590000c00e0000600320015cdba000a05e800a4
:1005a000020039003420ec000af0a0008b05e900bd
:1005b0008984e80054a0b4000b00e000e2ff3a0098
:1005c000000006009902ba00055d78008b05e9007d
:1005d000f7ff3200c82ade00055d78008b05e900d0
:1005e000f3ff32000c00e000f1ff320019ddba0029
:1005f000eeff37000000fa000108a9000080fa00b1
:10060000004006003600f800809fbe00829fbe00ba
:10061000849fbe00869fbe000000fa000068a9000b
:10062000d11107001f170700b3130700c082800015
:10063000d182800061004000e0804800c0828800d4
:10064000d1828800c0828000d18280009201200087
:1006500003002000c6000700e00f5000e08f5800a4
:1006600001003a007b1407000080fa004f03be002f
:100670004f02be004f01be004f00be003600f90021
:10068000004006003600f800809fbe00829fbe003a
:10069000849fbe00869fbe000000fa000368a90088
:1006a000a0828000b182800061004000e0804800ac
:1006b000a0828800b1828800970c07000080fa00b1
:1006c0004f03be004f02be004f01be004f00be00f0
:1006d0003600f90000400600801f78000000fa0094
:1006e00001a8a90000188000e0a088001018800070
:1006f000f0a088002018800000a188003018800039
:1007000010a188004018800020a1880010c0b3000c
:100710006df0b7000080fa004f007800004006003e
:100720003600f800809fbe00829fbe00849fbe00fe
:10073000869fbe000000fa000188a9001183800096
:1007400000838000808f5000020032007016070086
:10075000010037006470ef000080fa004f03be0014
:100760004f02be004f01be004f00be003600f90030
:10077000004006003600f800809fbe00829fbe0049
:10078000849fbe00869fbe000000fa000168a90099
:1007900010118000640060000000e00001003200e1
:1007a0002242a90010118000620060000000e000f9
:1007b000060032002222a900050037003011800017
:1007c00000407800c7160700010037000000000055
:1007d00010118000610060000000e000f7ff3a00a7
:1007e0000080fa004f03be004f02be004f01be0062
:1007f0004f00be003600f900004006000040da005d
:100800000000fe000000050014002000b0033700c7
:10081000f4ff2f00ae0337000001be003f000700c9
:100820000470a70003f0a1006509b10016003200b2
:100830000d0035006828e10006003500f0ff2f00ac
:10084000f1ff27000300e00013003b000100280037
:100850000000050000004000818048008502e9009a
:10086000fcff3a0008003700f88f420002003c000d
:100870008000eb00000005008100d1000080d30063
:100880008502e800fcff3a000300e00002003b00a4
:1008900060001000e0801800000006000001be00ab
:1008a0001e0007000470a70003f0a10003f8a300d6
:1008b00013003a006509b10010003200090035004c
:1008c0006928e10002003500010028000000050051
:1008d00000004000818048008502e900fcff3a00ea
:1008e00000000600f88f4200050035008100d100ad
:1008f0000080d3008502e800fcff3a0000000600fb
:100900008000eb00000005004f89de0082017800c6
:100910008a0337006011b80098033700c70ade0069
:10092000f107b200f50fb20008003200e1cf42003b
:10093000020032000170a00024000500810f700049
:10094000010032000408050044000500810f70001a
:1009500002003a00140005008502e9000000400092
:1009600081c04800fcff3b000170a000240005008e
:10097000df0307000400be000000060007f82700a0
:10098000078361000638e10004003a00f707200001
:10099000878361008703710001003a0003f0a20021
:1009a000889fbe008a9fbe008c9fbe00470ade0063
:1009b0000480a100c71ade000580a10007002800fe
:1009c0000785600087856100f70f20000720e100a0
:1009d0009e0032000728e1009c00320001067800ea
:1009e0000400e000b4003200f707200087806000b8
:1009f0000170a0000500e000c0003200f7072000f1
:100a0000878161000370a000050652000f003a00c4
:100a10000b50e1000b0032000308e10002003a0035
:100a20000200e1007e00320002045000838458007e
:100a3000040031000001fd008101fd008402fd0081
:100a40008a05fd006044b800210037000520e10060
:100a500005003d000001fd008101fd008402fd0054
:100a60008a05fd00050652007a60e10005003500a8
:100a70000170a1004722dd00848070008a80700030
:100a8000630037006044b800ef02660007ff2f00e4
:100a9000070666000500e00006003400f08312003f
:100aa0008714dd000511de00071bdd000601710063
:100ab0008519de007060e10005003500090478004a
:100ac00082047800030178008001eb007006560074
:100ad0000b50e10003003a00020040008380480010
:100ae0000400370060041400e0841c000200580079
:100af000838058000188a300060032008100d100e5
:100b00000080d3008984d3000884d3000402e80065
:100b1000270037000178a30025003a000100e0001b
:100b2000030032008186cf00698656000a00370034
:100b30008c0020000000e00004003a00090078006a
:100b4000880478000004eb00700252008086cf0019
:100b50000d0646000c06e9007060e1000600350055
:100b60008000780009007800880478000004eb0019
:100b700070065600700252000c00e0000c003400b9
:100b80008c08dd00f00316000703de00868070008d
:100b90000c00dd00074bde00060070008c4cdd0011
:100ba0000743de00868474000c44dd000c02520012
:100bb0006120e1002000350061016000070028008d
:100bc00087816400f7ff27008783640007037400b0
:100bd0000300e000060032008203730004003200cc
:100be0000000e800e08048000188a3000e003a0001
:100bf000f70f20000720e1004a003d000170a1002e
:100c00004722dd00810072008a8070000000be0073
:100c10004f06be004f05be004f04be000000060098
:100c20006000b800faff37008100d1000080d300d7
:100c30000402e800eeff3700040178008901740027
:100c4000a10107008a807000f1ff3700f70107005b
:100c5000070278000001fd008101fd00f30107009b
:100c600087027800850372000778a3000400320031
:100c70000001fd008101fd0006020700e4ff3700ce
:100c8000850362000768a300080032000b50e100f2
:100c900003003200f0ff2f00f1ff2700dcff3700d8
:100ca0000001fd008101fd00d9ff37000468a300a9
:100cb000d7ff3200faff3700f8ff27008883600073
:100cc0000b003a000000e00009003a0083036400d2
:100cd00082837300020032000200be00ccff3700a6
:100ce0000b50e100ceff3a000200be00c8ff370003
:100cf00014002000810064003eff3700f8ff270049
:100d00008883610004003a000200e00002003a001b
:100d10008c007800beff37001500200083016400be
:100d200039ff370001f8270000002000810075001e
:100d3000b7ff3700889fbe008a9fbe008c9fbe0011
:100d40001b0020000202be00058668000600280085
:100d5000060666004709de00f20fb200820032008c
:100d60000243e80080003200c729de00f30fb20022
:100d70007d0032000343e8007b003200f107b2003f
:100d80000170a000f507b2000570a000c708dd00e3
:100d90004903de00868070004700dd00c72add00c1
:100da0004923de00868272004722dd0003055100e0
:100db0000403500085835800030031000000400008
:100dc000818048000a05e9008c1f78008a9fbe00d8
:100dd00004005000858058000402420085824a00c9
:100de00000004000818048000005eb000004be00c8
:100df0006033b8000406be000d48e1005600310023
:100e0000110009004dccd8000c01b8000d02b8004b
:100e10008481410060824a008283530003045c00a5
:100e200084845c0060055d000a00e00025003a0053
:100e3000800578000d40e10049003100880078000d
:100e400007007800110009004d88d8000c01b80097
:100e50000d02b8008481410060824a0060031100e5
:100e600083835b0004045c00e0845c000900e00014
:100e700021003a004f01be000300e0002b003200c9
:100e8000e3016000070673008c81710001003200ed
:100e9000640070004200de004e5edd000c00700059
:100ea000c258de0001e0a00083010700cf017800f6
:100eb000818071004f06be004f05be004f04be008a
:100ec000000006008c8343000d044c00e0844c00bd
:100ed00060054d000000e9000a00e000d4ff320088
:100ee0008c8343000d044c00e0844c0060054d00f1
:100ef0000000e900ceff37000c0343008d834b0058
:100f000060044c00e0844c000000e9000900e000af
:100f1000d8ff32000c0343008d834b0060044c006b
:100f2000e0844c000000e900d2ff37004200de0000
:100f30004e5edd000c007000c258de0001e0a00033
:100f4000cf0178000300e000daff320060001000fb
:100f5000e0801800d7ff3700f0ff2f00aaff37000e
:100f6000f0ff2f00b9ff37000404be002f01070077
:100f7000870678000004fd008104fd002b010700b6
:100f8000078366000678a300030032000960a7000b
:100f90000800be002c0037000d78a30002003200cc
:100fa0000800be00280037000778a30026003a009a
:100fb00001f0a10009f0a1000668a30003003200bf
:100fc000f1ff2700f0ff2f00baff37000d68a300e4
:100fd000030032000800be008c807000b5ff3700af
:100fe0000768a30007003a000648a3000300320088
:100ff000f1ff2700f0ff2f00aeff37000d48a300e0
:10100000030032006000b8008c807000a9ff370038
:101010000748a3000400320001f827000000200068
:101020008c807000a3ff3700760107000004fd00ec
:101030008104fd0002057800720107000802be006d
:101040008a01780059ff37000160a00012022000d9
:101050008283880097ff37000100e0001200320011
:101060000500e00010003200889fbe008a9fbe008d
:101070008c9fbe000006eb0001f8a30003003200c5
:1010800060001000e08018000cf0a00005f8a3003c
:101090000300320060021200e0821a000cf0a2008d
:1010a0008005eb0041ff37006000b800020005003a
:1010b000038368000700280007036300470ade0077
:1010c0000480a100c71ade000580a100f70f2000f0
:1010d0000720e100420032000728e1004000320012
:1010e000889fbe008a9fbe008c1f7800f107b20067
:1010f000f307b2000400e000640032000170a000b9
:101100000500e000680032000370a0008505420081
:10111000eb07b1000204b8000302b8008484440065
:1011200060854a00020ab800848444000a854a00a7
:10113000030ab80004054500040033000804d00089
:101140008984d2000a85d2008b05e9006158e1004c
:101150003d00350002102000090161000308200055
:1011600089816100f7072000878364000886730087
:10117000c84cde00c853dd00878474004855de008b
:101180000300e00006003200820376000400320013
:101190008904e80060054d000a88a3000c003a00ad
:1011a000f70f20000758e10044003d000a70a1003d
:1011b000c75ddd000a8575008a00730009007800ac
:1011c0004f0678004f05be004f04be000000060029
:1011d0000a05d1008984d3008b05e800f0ff3700b1
:1011e000881f780006047800900007000702780046
:1011f0000001fd008101fd008c00070087027800de
:10120000850372000778a300050032000001fd008d
:101210008101fd009f0007004f04780000000600d8
:10122000850372000748a30003003200f0ff2f007f
:10123000f1ff2700f8ff37000000200001f8270029
:1012400088807000f4ff3700880178004848dd008e
:10125000808171004848de00c850dd000100700048
:10126000c850de00060478000b0178001600070065
:1012700088807000d2ff37000500e00005003200d2
:10128000170020003a0007009dff3700810370001f
:10129000f9ff3a00860078004f0678004f05be003f
:1012a0004f04be000000050083037100f9ff320007
:1012b000270020002e00070094ff370001f82700c8
:1012c00086807000f4ff37000100e0002600320045
:1012d000610111007810e10023003c006022b80099
:1012e0007010e100040035008002780001007800f1
:1012f0008000eb00700151000200e00009003400a2
:1013000070031100062add00822ade008603dd005c
:10131000878272000200de00860bdd00070070008d
:101320008208de0084817100f4ff270004826200dd
:1013300084817100040028008482620061026000e0
:1013400005f0a600000006000482710007003200cc
:101350000000e800e0804800000006000002be0037
:101360006000b800efff37006000b8000000060022
:10137000889fbe000004eb006138e10016003a00cf
:101380000100e00008003a00c800de004800dd006f
:10139000880020000100e00003003a00c800de00e1
:1013a0004800dd00680444008184cf00e9845400d3
:1013b000060034008908dd00f08314008703de0096
:1013c000878070000900dd000904440061021400f8
:1013d0004f04be00000006000300e00008003a00d1
:1013e000c811de004811dd00880020000300e00085
:1013f00003003a00c811de004811dd006804440013
:101400008384cf00e9845400060034008919dd008c
:10141000f08314008713de00878171000911dd005d
:1014200009044400e1021400e9ff3700270020000e
:1014300001f0a70017002000470bde00f60fb200f6
:10144000040032000643e8000a0032004702b300fd
:101450000000060001037800f607b20006037000e2
:1014600002003a000703b300000006008702b30041
:101470000000060001037800f607b20006037000c2
:10148000020032000770a000000006000760a00004
:10149000000006000478a300040032000578a300d1
:1014a000030032000168a30001003a000200be0000
:1014b0000160a000000006008101700027003200da
:1014c0008002eb0001f8a30003003200600010006e
:1014d000e080180015002000f407200002024200fe
:1014e00020003400f703200087036000060420007a
:1014f0000003630002082000000161004700de00d5
:10150000c909dd0000807100c708de000600e000a8
:101510000800320087037100060032001000b0009e
:101520000180b0000188a30002003200c108de0083
:101530000402e800f107b200f30f20000320e100ed
:1015400003003d004722dd008100720029003700c2
:1015500001f827000000eb00260037006000b8000b
:1015600000000600680212007f20e1000200340043
:101570006000b8001f0037006011b8007020e10063
:101580000400350080017800010078008000eb0045
:10159000700252000400e00009003400f003120061
:1015a0000719dd008419de000703dd008681710064
:1015b0000400de00070bdd00060070008408de007a
:1015c000f7ff27008383630087037100060028006c
:1015d00003036300070032000700e00003003a0045
:1015e0006101600002817300020032001000b0004f
:1015f0000180b0000500a6000000060001f0a00078
:10160000000006004f0ade004709de00f107b200c5
:10161000f20fb2000b003200f207b1000170a0001f
:10162000c708dd00c901de00838070004700dd00cf
:101630000400a6000000060060001000e080180012
:1016400000000600810f700001003a000000060053
:101650008182cf000500e00010003e008082cf00b4
:10166000ee8242007028e1000400390007003e00cd
:10167000800078000000eb000e003700708312003d
:101680008600de000500dd000a003700708352008e
:101690008600dd000000eb0006003700e282520009
:1016a0008508dd00708312000603de00868070006e
:1016b0000500dd007507b0000501ea000400a60082
:1016c0000000060060001000e08018000000060026
:1016d000889fbe008a9fbe00841f78007c000700a0
:1016e0004f00780011003300f0ff2f00838f6c0053
:1016f00006003b00040565000a00a700080037004b
:1017000009f0a6001000200008003700820f5400e6
:10171000838f5c00030039001000200001003e00b0
:101720000000200009f0a7000000ea004f05be00fd
:101730004f04be000000e00000000600881f780093
:10174000030478000300e00007003d006000100083
:10175000e080180060011900e081190002003b00e0
:1017600001f02d00030037000400070008f0a70077
:1017700001f0a0004f04780000000600889fbe0022
:101780008a9fbe0000827000040271000482710012
:10179000260032000004be000200be006011b80046
:1017a0006b092000950220000182cf000a00390059
:1017b0000541b1000082cf00070039000541b100aa
:1017c0000982cf00040039000541b1000882cf0032
:1017d000010039000541b1000542520012003200fb
:1017e0000a003b0082817100610164008100d10028
:1017f0000080d3008984d3000884d3008b05e800df
:101800000442e800f7ff3a000700370008044400ec
:1018100089844c0000004800818048008b05e90065
:101820000442e900f9ff3a00030007004f05be003b
:101830004f04be00000006008100200061805500ba
:101840000b003d000b00200061fe2f000100e100b5
:101850001d00340082817100610164008904d1009f
:101860000884d3000000e800faff3a00710020006d
:101870006100640003007000020060000900320093
:1018800061044400e0844c000988a5000500320092
:101890008b05e8006808e10002003a008904d100e5
:1018a0000884d300f20f20000258e10005003d003b
:1018b000c75ddd00f907b200898075000800780077
:1018c000000006000bf827008b00780000000500e0
:1018d0000004be0011fc07000003be000405be00aa
:1018e0000200be000dfc0700844f750000000600da
:1018f0006022b800060220000000d0008180d200e3
:101900000482d2008582d2000000a00002025200b0
:1019100083825a00030031000202420083824a009f
:101920000000a1000603e900f3ff3a0000000600f2
:101930000800fa000002be008501780003f0a10053
:1019400000017800a6fd200097f42300860f5100c7
:10195000878f590008003e00f4ff2f00f597230001
:10196000840f5100858f590055003e000000200073
:1019700001f82300600037004f0ade000500200058
:10198000163d2500b7072400860f5100878f5900a8
:1019900019003e0036be2c0067012400860f51005e
:1019a000878f59000a0036000400e000040032006e
:1019b000b2fd200093042400f9fb07004800370023
:1019c000b2fd200093042400ecfb07004400370024
:1019d0000400e00004003200b2fd200093fc23006c
:1019e000effb0700430037000001be00b0fd200000
:1019f00091fc230019003700561d2300270e2400f8
:101a0000860f5100878f590016003e00f6dd2e002c
:101a1000f70a2400860f5100878f59000a0036000c
:101a20000400e00004003200b2fd2000930c24000a
:101a3000dbfb070022003700b2fd2000930c2400de
:101a4000cefb07001e0037000400e000010032005a
:101a500001f0a20042be2c0063092400c7fb07006e
:101a600024003700f4ff2f00f5f72700840f510002
:101a7000858f5900030036000001be00bffb070040
:101a80001d00370068815700650107006011b8002c
:101a900063016000e10f5100e08f59000a0032003d
:101aa000e20f5100e08f59000b003200e00f5100af
:101ab000e08f59000d003a004fb89700dfb897004b
:101ac000290107000c0037004fb89700dfb89700d6
:101ad00001f0a200070037004fb89700dfb8970069
:101ae0002101070001f0a200030037004fb8970062
:101af000dfb89700a60107000080fa00000006008a
:101b0000000006000400fa00889fbe008a9fbe0005
:101b10008c9fbe000004be000205be00020641000c
:101b200083864900e00f5600e08f5e00140032000b
:101b30000200be0082bf9f0093bf9f00f0ff07001e
:101b40008102780005f0a10000027800000020006a
:101b500001f827000fb997009fb99700800f520036
:101b6000818f5a0006003e000802be00474bde008f
:101b7000070020000680fb00e14f430005003a000b
:101b80000800be004afd07000001be0069fc070016
:101b9000090037000801440089814c008c0f510076
:101ba0008d8f590006003e0074003a006011b800a5
:101bb0000800be003efd07000004be006f003700b5
:101bc0000000e00013003a004949dd00c741de0093
:101bd000830171004941dd00030037000000e90086
:101be0000201410083814900e00f5100e08f59005c
:101bf000faff3d00e10010000401be008100e90091
:101c0000030033000201410083814900fbff3700dc
:101c10000400370085017800f307b200080178005e
:101c20000370a000475bde000700200086007800fc
:101c3000f10fb20012003a00495bdd00c753de002d
:101c4000870373004953dd00030037008100e9007a
:101c50000603430087834b00e00f5300e08f5b00d7
:101c6000faff3d00618310000603e9000300330022
:101c70000a0545008b854d00fbff3700100037003b
:101c80008b037800f707b2000a0378000605be0050
:101c90000b70a0000a003700e00f5300e08f5b00dc
:101ca00004003500e00f5300e08f5b00bfff3200ff
:101cb0000601be0002014100838149000000e900e5
:101cc0000a0351008b835900810f5000f2ff3c0042
:101cd000e00f5300e08f5b0003003d000900370078
:101ce0000601be0007003700e00f5300e08f5b00e5
:101cf000fbff3a00adff370002014100838149003c
:101d00000000e900471bde0007002000e00f530041
:101d1000e08f5b00f8ff32000000e0000a003400b2
:101d20000600200007f82f000201430083814b00ca
:101d3000cf80de00c700dd0000002000020170003f
:101d40008381700006003700610010000000e90088
:101d5000030033008301d1000281d300fbff370071
:101d60000000200001002800858360000003780047
:101d700006017100878171000204be000800be00e8
:101d80004f06be004f05be004f04be000080fa00a3
:101d9000000006000800fa000002be00850178007d
:101da00003f0a10000017800a6fd200097f42300b5
:101db000860f5100878f590006003e00f4ff2f0068
:101dc000f5972300840f5100858f59006400360079
:101dd0005d0037004f0ade0005002000163d25009b
:101de000b7072400860f5100878f590019003e0065
:101df00036be2c0067012400860f5100878f5900e2
:101e00000a003e000400e00004003200b2fd2000a1
:101e100093fc2300e2fa07004f003700b2fd2000d8
:101e200093fc2300d5fa0700420037000400e000cd
:101e300004003200b2fd200093042400d8fa070009
:101e400040003700b2fd200093042400cbfa0700c5
:101e50003c003700561d2300270e2400860f51003a
:101e6000878f590019003e00f6dd2e00f70a240086
:101e7000860f5100878f59000a003e000400e000e1
:101e80000400320042be2c0063092400c4fa07009b
:101e90002800370042be2c0063092400b7fa07006f
:101ea0002d0037000400e00004003200b2fd2000e5
:101eb000930c2400bafa070023003700b2fd20007b
:101ec000930c2400adfa07001f003700f4ff2f0029
:101ed000f5f72700840f5100858f59000300360065
:101ee0000001be00a5fa07001d00370068815700f9
:101ef0004b0007006011b80063016000e10f510062
:101f0000e08f590009003200e20f5100e08f5900c4
:101f10000a003200e00f5100e08f59000c003a0037
:101f20004fb89700dfb89700070037004fb8970009
:101f3000dfb897000c000700090037004fb8970082
:101f4000dfb8970001f0a2009100070004003700fd
:101f50004fb89700dfb897000300070001f0a20018
:101f60000080fa0000000600889fbe008a9fbe0025
:101f70008c9fbe000001be004dfc07000004be00a7
:101f80000001be004afc07000005be000200200060
:101f900003f02b000800be0045fc070002002000f3
:101fa00003f823007efa07000006be00f2a92a000b
:101fb000a3d223000a00be003dfc07000001be00c2
:101fc0000c00be0076fa07000006be000801be0045
:101fd0000a00be0036fc07000005be0072a1290001
:101fe000c37c23000800be0031fc0700f243200040
:101ff00063ab230061fa07000001be000a00be00c7
:102000002bfc07000001be000c00be0064fa0700b4
:102010004f06be004f05be004f04be000000060084
:10202000ea874700889fbe008a9fbe008c9fbe0043
:102030008e1f78000006be00020478000005be0076
:102040008b01780003f0a10000017800a0fd2000c2
:1020500091dc2400800f5100818f59001e003e004a
:1020600032982f0023f223000c00be0010fc070062
:102070000200200003b4240049fa070002002000f7
:1020800003b424003dfa07000005be00e2f9070092
:1020900080047800a2fd200093fc23000a00be000b
:1020a00003fc07000001be000c00be0033fa07006d
:1020b0000006be00325a2800832823000a00be0012
:1020c000fbfb07000001be000c00be002bfa07005e
:1020d000008cbe0027003700f0ff2f00f1f727002b
:1020e000800f5100818f5900060036000c01be00a0
:1020f0000c00be0021fa0700008cbe008004eb003b
:102100001c0037004718de00010020006009b10004
:102110000180b100c702dd0004002000040151006d
:102120008581590076875700029fbe000002eb00b0
:1021300013002000000178008e00780076805700a0
:102140004300070080047800e00f5600e08f5e0037
:1021500006003d001e0078009e00900001f0a200e5
:10216000008cbe008904ea00020037003e1c7800a3
:102170002e147800090078004f0778004f06be0043
:102180004f05be004f04be00af00b10000000600c6
:10219000889fbe008a9fbe008c9fbe000005be00c7
:1021a0000001be00c2fb07000004be000a01be0021
:1021b000bffb07000006be004288280083c0230042
:1021c0000800be00bafb0700b2aa2a00a3e223005f
:1021d000eaf907000001be000c00be00b4fb0700d6
:1021e0000001be000a00be00edf907000005be00b8
:1021f0000801be000800be00adfb07000001be00e4
:102200000c00be00aafb07000006be00c2c32600e9
:10221000636323000800be00a5fb0700f27c2000da
:1022200003952300d5f907000001be000c00be0095
:102230009ffb07000001be000a00be00d8f907009e
:102240004f06be004f05be004f04be000000060052
:10225000af17b000889fbe008a9fbe008c9fbe0053
:102260008e1f7800b0a79f0081af9f000204780006
:1022700003057800f4a79f00040042002107210015
:1022800000804000100078006101b900b2af9f00eb
:10229000c3af9f000a00e9006102b90094af9f003c
:1022a000a5af9f00630054008201200011000900c7
:1022b0000200d8006103b900d6a79f00e7a79f00de
:1022c000e00f5300e08f5b0003003d006000b800aa
:1022d000d0a79f00e1a79f005fa19700efa1970003
:1022e0000280ea008380ea008201200003002000cf
:1022f0002c040700cfc1de000004440081844900a3
:102300005fa29700efa297001fab9700afab9700bb
:102310000606520087865a003fa89700cfa897006c
:102320000002430081824b006eec2f000f07470034
:10233000c265dd00a0072100808545006011b8005e
:102340000803be000a04be000205be0015003700e7
:102350006000b800e00f5600e08f5e000b00350013
:102360001900780099009000d4b79f00e5b79f004e
:10237000f6b79f0087bf9f0063f907008fbb9700e8
:102380007fb39700efb297005fb2970000afbe0037
:1023900061054500e0854d0061064600e0864e007f
:1023a000e4844400840f5500858f5d00e8ff34000d
:1023b0000805780064f62f000f0242006011b80093
:1023c000b2b79f00c3b79f00840678002100370092
:1023d0003c007800bc007800e48555001b017800c3
:1023e0009b019000d4b79f00e5b79f00f6b79f0010
:1023f00087bf9f002efb07000001be000800be0043
:1024000067f907000004be005fb29700efb29700c3
:1024100061024200e0824a008fbb97007fb39700c1
:102420001fa89700afa89700800f5200818f5a0015
:10243000e7ff340088aebe003fb19700cfb19700f0
:1024400061014100e0814900b2b79f00c3b79f001e
:102450000a05e8003fb29700cfb297003fa8970067
:10246000cfa89700800f5200818f5a0008003c00cf
:102470003fa69700c255dd00a1ec2f008f804000e1
:102480008b8540006044b8006022b800e4ff37004c
:102490003fa99700cfa99700b2b79f00c3b79f008d
:1024a00096b79f00a7b79f00bfb297004228dd00f4
:1024b000a6e72f000f0343000000430000bc90007c
:1024c00090bc90006de72f008f8646003fb09700cc
:1024d000cfb0970061005000e0805800f0af9f003f
:1024e00081b79f00c205dd00a1f62f008f8040005c
:1024f0008b8540000d0578003fb39700cfb3970060
:102500000d0778001b00370002002000033823006d
:102510000800be00f6b79f0087bf9f00e4fa0700df
:10252000bdf80700f8f807000006be000200200012
:1025300003b82400defa07000001be000800be0058
:102540000ef90700b4f8070000adbe009b00900034
:102550001b007800e48555000c01be0010f907004f
:102560000004be007fb397008fbb97006103530048
:10257000e0835b00e00f5300e08f5b00e2ff3c0074
:102580008e0678001fb697000c0178000800be0088
:102590005a0307000004be000200200003e02300ed
:1025a000c3fa0700f602070002002000031024000f
:1025b000bffa07000001be000800be00eff80700e8
:1025c0000005be0094f807000004be00cef8070026
:1025d0000001be000a00be00e8f807000005be00ca
:1025e0001fb19700afb19700e00f5100e08f590085
:1025f00023003400ffa997004218dd00a4e72f0054
:102600000f02420000004200100278009002900089
:10261000f80016000401be00010378000603e9007b
:10262000030033008381d1000281d300fbff370018
:1026300008044100898449008100e9000300330057
:102640000201410083814900fbff37000201520073
:1026500083815a000288be00770016000202be0085
:102660000000e900030033008582d1000482d3001a
:10267000fbff3700d4af9f00e5af9f001e0037007f
:102680001fb39700afb39700e00f5300e08f5b00dc
:102690000c003a00ffab97004238dd00a1e72f00a5
:1026a0008f80400000804000900090001000780073
:1026b0004789de00d2af9f00cf89de00e3af9f00e5
:1026c0000d0037000200200003f0230050f807003f
:1026d0002400200005002000d4af9f00e5af9f003c
:1026e0000000e00009003d006033b800d6af9f0055
:1026f000e7af9f00660037005fa89700efa897003c
:10270000e00f5000e08f5800610034006104440085
:10271000e0844c006000b8006022b800140037006c
:10272000e48646001d0178009d019000e00f5200f4
:10273000e08f5a0006003a00e00f5100e08f590088
:1027400009003200040020000510200002003700bc
:10275000f4ff2f00f50f2000821e520083965a00ce
:10276000140020000500200061004000e0804800c7
:102770003fb19700cfb19700820f5000838f580070
:10278000e7ff35001fb39700afb39700e00f53008a
:10279000e08f5b0025003400e10f5300e08f5b0009
:1027a00004003200e20f5300e08f5b001f003a008c
:1027b0000f003700ffab97004238dd00a1e72f0084
:1027c0008f80400000804000100178009001900050
:1027d00003037800f607b200a6a79f0082037800e3
:1027e00097a79f001fa19700afa197000e00370089
:1027f000ffa997004218dd00a6e72f000f03430052
:1028000000004300100178009001900083037800dd
:10281000f703b20087a79f0082007800f19f9f0016
:102820007f9997008fa197000288be005fab970049
:10283000efab9700e20f5300e08f5b0014003a000b
:102840000a01be000000200001f82300d4b79f0059
:10285000e5b79f0049f807000005be005fb297008a
:10286000efb29700e00f5200e08f5a0008003200ec
:102870000c0178000000200001f823009f020700ef
:102880000001be000a00be003cf807000005be00c3
:102890006011b8000a00be00dbf707000000e0008e
:1028a0008a003a003fb09700cfb09700ffab970087
:1028b000423add00a2e72f000f014100040241006f
:1028c0006011b800050037009403900014037800ed
:1028d000640252000601710087817100610050009e
:1028e000e08058003fab9700cfab9700860f5000b9
:1028f000878f5800f4ff3d00e00f5100e08f590032
:1029000080003a0061005300e0805b004200dd007f
:10291000a7e72f008f8343000080430012002000b0
:1029200003002000f2af9f0083b79f001200200039
:10293000030020000200370061014100e0814900ee
:10294000900290001002780064005000e00f5200e6
:10295000e08f5a00f8ff3200f2af9f0083b79f006c
:102960003fb39700cfb3970061024300e0824b0072
:102970004226dd00a7f62f008f8343000c8643001c
:102980005fa19700efa1970061004100e08049003e
:102990003fb39700cfb397000000430081804b0006
:1029a000c204dd00a0072100808444001fa9970015
:1029b000afa9970061004100e0804900000043009a
:1029c00081804b004201dd00a3ec2f008f8141008c
:1029d00082814100c3a79f000004e8000907780036
:1029e000880678000404be002c0037003e00780002
:1029f000be007800c4f707004fa29700009abe00ff
:102a0000c4a79f003fa29700c26add00a6ec2f007a
:102a10000f034300850243006033b8006055b800df
:102a2000d89f9f00e99f9f000404be00100037005c
:102a300038007800b8007800e48454001901780068
:102a400099019000f6b79f0087bf9f0098f9070093
:102a50000001be000a00be00d1f707000005be005d
:102a60007fb397008fbb970061034300e0834b0067
:102a70001fa99700afa99700820f5300838f5b00b7
:102a8000ebff34005f9c9700ef9c97000a9ebe000e
:102a900061044400e0844c008d06e8007faa9700a2
:102aa0008fb297003fb39700cfb397000400430065
:102ab00085804b00800f5400818f5c00cbff340079
:102ac000b0b79f00c1b79f0077fe370098af9f0057
:102ad000a9af9f001fb49700afb497000c01ea00a4
:102ae0000a00be00050207000005be00020020002b
:102af00003b8240046f707000000e00022003d0074
:102b00004500370098af9f00a9af9f001fb4970002
:102b1000afb497003fb09700cfb09700610050006e
:102b2000e0805800b0b79f00c1b79f007804540000
:102b3000e0845c00bfb097004208dd00a2e72f00f0
:102b40000f014100000041003fb19700cfb1970055
:102b50000400370061015100e081590078045400fd
:102b6000e0845c0090029000100278006400500045
:102b7000e00f5200e08f5a00f6ff3200b2b79f001c
:102b8000c3b79f002c003700020020000338230049
:102b90000a00be0046f907001ff707005af70700b2
:102ba0000006be00bfb29700422fdd00a6e72f004f
:102bb0000f0343000e0743000200200003b8240067
:102bc0003bf907000001be000a00be006bf70700da
:102bd00011f70700008fbe003fb09700cfb09700fd
:102be00061004000e0804800b0b79f00c1b79f007f
:102bf00078044400e0844c004205dd00a1e72f008a
:102c00008f8040000a8540000c00be0002f70700dc
:102c1000008dbe00080037003fb197004216dd006e
:102c2000a3e72f008f8141000c8641000a00be00ff
:102c3000f9f60700008ebe000801780000002000b1
:102c400001f82300ad0107000004be003fb2970069
:102c5000f4af9f008402e80095b79f00c22ddd000d
:102c6000a6e72f000f0343000b054300a7f62f0034
:102c70008f8343008b8543003fb69700cfb6970004
:102c80000f003700640555001a0078009a00900084
:102c90001df707000001be000800be0004f9070090
:102ca00080a5be0002002000033823000800be00fb
:102cb000fff807000004be0061065600e0865e00d3
:102cc000e00f5600e08f5e00eeff3d006df12f003b
:102cd0008f8646003fb59700cfb59700200037009c
:102ce000640646001c0178009c01900064074700c0
:102cf0001e0078009e009000d4b79f00e5b79f00ab
:102d0000ebf807000001be000800be0024f7070032
:102d10000004be0061054500e0854d00efb297005c
:102d20005fb297003fa89700cfa89700800f55008b
:102d3000818f5d0007003c003fb19700cfb1970045
:102d40000400510085805900800f5500818f5d007f
:102d5000e3ff340088aebe0061055200e0855a00f2
:102d6000e00f5500e08f5d000b003500ee172100ed
:102d70000a06e9004266dd00a3f62f008f814100bc
:102d80000c8641006044b8006000b8000a02be0032
:102d90000005be00e3ff37007fa29700e20f52005c
:102da00005003c00e10f520010003d000400e0006f
:102db00017003200ea003700ffa29700e38f5200ad
:102dc000e7003a003fb397004232dd00a7f12f0041
:102dd0008f83430004824300040778003fb39700c9
:102de000cfb39700b4af9f007a0037001fb09700b1
:102df0004205dd00a1f12f008f8040000a854000d0
:102e00003fb49700cfb497006000b80021003700ae
:102e10001fb197004214dd00a3f12f008f81410004
:102e2000088441003fb59700cfb597006000b80017
:102e300006003700640454001801780098019000df
:102e4000d7f6070061055500e0855d00e00f5500ed
:102e5000e08f5d00f7ff3d005faa9700efaa9700a3
:102e6000e00f5200e08f5a000100320001f0a20092
:102e70008faa9700808abe00b9003700640555000c
:102e80001a0178009a019000c5f607006104540009
:102e9000e0845c00e00f5400e08f5c00f7ff3d0031
:102ea0000001be005fab9700efab9700e00f53004f
:102eb000e08f5b000100320001f0a2008fab9700b1
:102ec000808bbe005f089700ef089700abf6070005
:102ed000aaf12f000f05450018002000090020006e
:102ee00006003700640545001a0178009a01900039
:102ef000abf6070061044400e0844c003fb197004a
:102f0000cfb19700820f5400838f5c00f5ff34002f
:102f10008fa99700648141005faa9700efaa9700ec
:102f2000e00f5200e08f5a000100320001f0a200d1
:102f30000089be008a003700c0ff2f00ffaa97005b
:102f400080a8b900000047003fb29700cfb29700b9
:102f500061015200e0815a004211dd00820240000e
:102f6000e482420015067800950690000e02780073
:102f70006402420014057800940590000a01be0026
:102f80000c00be00d4b79f00e5b79f00f6b79f00c6
:102f900087bf9f0082f607000004be000001be004c
:102fa0000c00be0075f607000001be000a00be005e
:102fb0007bf607005fb29700008abe00efb2970071
:102fc000888abe007fb397008fbb970061035300d0
:102fd000e0835b0064075700e00f5300e08f5b0065
:102fe000d5ff3c003faa97003fb39700cfb39700af
:102ff0000404780027003700c0ff2f00ffaa9700c5
:1030000080a8b900000044003fb29700cfb29700fb
:1030100061015200e0815a00c214dd0089044000c1
:10302000e4844400190278009902900008077800af
:10303000640747001e0678009e0690000c01be0043
:103040000400be00d4b79f00e5b79f00f6b79f000d
:1030500087bf9f0052f607000005be000001be00ba
:103060005fb29700efb297000400be0043f607007e
:103070000001be000c00be0049f60700008fbe0034
:103080008a8cbe007fb397008fbb9700610353000b
:10309000e0835b0064045400e10f5300e08f5b00a9
:1030a000d5ff3c009fb29700422cdd00a6f12f0017
:1030b0000f034300080443003fb59700cfb59700c6
:1030c0006000b8000600370064045400180178005e
:1030d0009801900032f6070061055500e0855d001b
:1030e000e10f5500e08f5d00f7ff3c005fa99700fe
:1030f000efa99700e00f5100e08f59000b003a0054
:103100000fa997005f0a9700ef0a97000499be0085
:103110007f0b97008f1397000689be008fab970037
:10312000c0039800d10398000d0037005f0a970094
:10313000ef0a970005f0a2000fa997000499be00be
:103140007f0a97008f12970005f0a2000489be0045
:1031500001f0a2000fa997004001980051019800ca
:103160009fa99700678061004f0778004f06be0057
:103170004f05be004f04be00af17b10000000600af
:103180000c00fa00889fbe008a9fbe008c1f78004a
:103190000004be006000b8006011b800f0b79f00e6
:1031a00081bf9f0092bf9f00a3bf9f00f8b79f0001
:1031b00089bf9f007fb297008fba97001fbb97000f
:1031c000afbb9700443ade00f07f200000066200ab
:1031d00020432000800f560042003c006011b800e0
:1031e0000800be0088f507000000e0003d00320046
:1031f0007fb097008fb897001fb99700afb99700bd
:10320000e00f5000e08f5800e00f5900e08f5900a8
:1032100008003d000200200003b024000800be00aa
:10322000d6f507000200200003b02400dcf50700fb
:10323000070037000200200003b024000800be0091
:10324000d7f507000200200003b02400cbf50700eb
:103250000801be00c9f507000005be00e03f2000e0
:10326000800f56000f003c00dab79f00ebb79f00bd
:103270006044b8007fb097008fb897001fb99700df
:10328000afb99700e00f5000e08f5800e00f5900f1
:10329000e08f590013003d000800200009f82b00c2
:1032a000100037006011b8000a00be0058f5070092
:1032b0000000e000070034000a01be000800be0064
:1032c000b7f507000200200003f82300abf5070064
:1032d000030037000a01be000800be00b0f5070079
:1032e0000004be000800be004f0678004f05be0077
:1032f0004f04be000080fa0000000600889fbe0058
:103300008a9fbe0002047800f93f2000890f540014
:103310000d0034000200200003f8270064f70700c6
:10332000f83fb100890f540015003400020020005e
:1033300003f827005ef70700f83fb100890f54003b
:103340000e003c000e00370029c02f00890f5400ea
:103350000b003d006011b80055f70700983cb00025
:10336000890f540006003d006011b80050f70700b7
:10337000983cb000890f540001003d00090478001a
:10338000f83fb000cfc4de00614db9006044b80022
:103390000801be0046f707004f05be004f04be00ff
:1033a00000000600020ab900001bb9000200b800c4
:0c33b00081004200810043000000060084
:020000040000fa
:1033bc000e00fa00889fbe007d0c0700440c07002d
:1033cc00210707003907070043070700d805070046
:1033dc00770b0700040c0700320807003a080700b7
:1033ec0064cea80064eea800254ea8000000eb00f7
:1033fc00000f780007003700ca0b07008e80e8002a
:10340c00804878000e80e80010407800ec0407003b
:10341c001e0fe800e30b07009e0f5000f6ff3c0068
:10342c00a50b07000004e00026013200a60b0700e4
:10343c009d0b0700800078006400470001087800ad
:10344c00640047001000780010007800308288007b
:10345c0064004700100078000080e800100078003d
:10346c00408288006400470010007800640040002f
:10347c00100078005082880064004700100078002b
:10348c0066004000100078006082880064004700ed
:10349c0010007800680040001000780070828800ee
:1034ac0064004700100078000080e80010007800ed
:1034bc008000eb0014f507003233230033052400a1
:1034cc00f8f60700020020000358240016f6070047
:1034dc00d2cc2c00c3042400f2f60700660147008e
:1034ec000089be0066004700100178009001900032
:1034fc0000002000812024000bf6070002002000b1
:10350c00030a24001af50700e08d8800f18d88006d
:10351c006400470010007800100078008000eb0079
:10352c00f9f407003233230033052400ddf60700dd
:10353c000200200003582400fbf50700d2cc2c001d
:10354c00c3042400d7f60700660147000089be00bb
:10355c0066004700100178009001900000002000e8
:10356c0081202400f0f5070002002000030a24004b
:10357c00fff40700a08d8800b18d8800640047001f
:10358c001000780064004000100078008000eb0010
:10359c00ddf407003233230033052400c1f60700a5
:1035ac000200200003582400dff50700d2cc2c00c9
:1035bc00c3042400bbf60700660147000089be0067
:1035cc006600470010017800900190000000200078
:1035dc0081202400d4f5070002002000030a2400f7
:1035ec00e3f40700208e8800318e880064004700c9
:1035fc001000780068004000100078008000eb009c
:10360c00c1f407003233230033052400a5f607006c
:10361c000200200003582400c3f50700d2cc2c0074
:10362c00c30424009ff60700660147000089be0012
:10363c006600470010017800900190000000200007
:10364c0081202400b8f5070002002000030a2400a2
:10365c00c7f40700008e8800118e880064004700b4
:10366c001000780066004000100078008000eb002d
:10367c00a5f40700323323003305240089f6070034
:10368c000200200003582400a7f50700d2cc2c0020
:10369c00c304240083f60700660147000089be00be
:1036ac006600470010017800900190000000200097
:1036bc00812024009cf5070002002000030a24004e
:1036cc00abf40700c08d8800d18d8800208e80005f
:1036dc00318e800018c0b3000200200003122400b9
:1036ec0046f407000000e000010035000044eb0048
:1036fc000804e00004003200000020000112240045
:10370c00208e8800318e8800008e8000118e800003
:10371c0018c0b300020020000312240037f4070085
:10372c000000e000010035000044eb000804e0005c
:10373c00040032000000200001122400008e8800da
:10374c00118e8800e08d8000f18d800018c0b300d0
:10375c00020020000312240028f407000000e000ff
:10376c00010035000044eb000804e00004003200c6
:10377c000000200001122400e08d8800f18d8800eb
:10378c00c08d8000d18d800018c0b30002002000d5
:10379c000312240019f407000000e00001003500ba
:1037ac000044eb000804e00004003200000020009c
:1037bc0001122400c08d8800d18d8800a08d80005e
:1037cc00b18d800018c0b300020020000312240049
:1037dc000af407000000e000010035000044eb0093
:1037ec000804e00004003200000020000112240054
:1037fc00a08d8800b18d8800e08d8000f18d800057
:10380c0018c0b30002002000031f2400fbf30700c4
:10381c000000e000010035000044eb000804e0006b
:10382c0002003200254ea80001003700254ea900e9
:10383c00008e8000118e800018c0b30002002000a2
:10384c00031f2400edf307000000e0000100350029
:10385c000044eb000804e0000200320064cea80033
:10386c000100370064cea900008e8000118e80000c
:10387c0007f4070080447800208e8000318e800091
:10388c0003f4070000447800e08d8000f18d800087
:10389c00fff30700804078006a0047000948780071
:1038ac006b004700084878006c004700014878001e
:1038bc006a0047000001780031002000000320005e
:1038cc0048030700408d8000518d800002002000cd
:1038dc00831c2400c9f307000000e00009003a0033
:1038ec00808d8000918d800002002000831c2400bc
:1038fc00c2f307000000e00002003a0064eea800ea
:10390c00bafe370064eea900b8fe37000000fa00da
:10391c0051d0bf000080fb00cf80de00b200200041
:10392c0003002000820f5000838f580060003e007f
:10393c00000601000b003700140037001d00370093
:10394c0027003700280037003100370032003700dd
:10395c003b0037003c00370046003700470037007b
:10396c00510037005430ef005630ef000041eb00af
:10397c006000b800a005070012c0b3006000b800da
:10398c009d05070010c0b30051f0b700a282800063
:10399c00b3828000803e200001002000800f510087
:1039ac00818f59004500360020c0b30051f0b7009c
:1039bc00430037000041eb0000002000011a2400f6
:1039cc008d05070012c0b30000002000011a24006e
:1039dc008905070030c0b30051f0b700380037003c
:1039ec0061000700360037000041eb0000002000aa
:1039fc00011724008005070012c0b3006000b80056
:103a0c007d05070050c0b30051f0b7002c00370003
:103a1c00550007002a0037000041eb006000b80099
:103a2c007505070012c0b300000020000117240028
:103a3c007105070070c0b30051f0b70020003700cb
:103a4c00490007001e0037000041eb000000200079
:103a5c00011724006805070012c0b3000000200005
:103a6c0001172c006405070090c0b30051f0b7009b
:103a7c00130037003c000700110037000041eb0039
:103a8c000000200001172c005b05070012c0b300da
:103a9c00000020000117240057050700b0c0b30038
:103aac0051f0b700060037002f0007000400370064
:103abc005170ef0000000000010037000000000012
:103acc000080fa00000006000a00fa00a2828000c2
:103adc00b3828000028fbe0015052100954278004c
:103aec001e0078009e0090004808de00004278001e
:103afc001e0078009e0090004008de008041780097
:103b0c001e0078009e0090004809dd004800de0091
:103b1c0000007100c808de00004178001e0078002b
:103b2c008040780064004700054878006500470035
:103b3c000448780066004700034878006700470097
:103b4c00024878006800470001487800640047008c
:103b5c00000178005100200000052000a1020700a0
:103b6c000080fa00000006000200fa00881f7800ae
:103b7c000040eb00004f7800e08d8000f18d80005c
:103b8c0018c0b30002002000031f24001df307001f
:103b9c000000e00001003c000044eb000804e000e1
:103bac002f003200a08d8000b18d800018c0b300b2
:103bbc0002002000031a240012f307000000e000aa
:103bcc0001003c000044eb000804e000240032003b
:103bdc00208e8000318e800018c0b30002002000bf
:103bec00031f240007f307000000e00001003c0065
:103bfc000044eb000804e00019003200c08d800086
:103c0c00d18d800018c0b30002002000031a2400dc
:103c1c00fcf207000000e00001003c000044eb0057
:103c2c000804e0000e003200008e8000118e80002f
:103c3c0018c0b30002002000031f2400f1f207009b
:103c4c000000e00001003c000044eb000804e00030
:103c5c00030032000040eb00004f78003f003700bb
:103c6c00208e8000318e800018c0b300020020002e
:103c7c00031f2400e1f207000000e0000100340003
:103c8c000044eb000804e0000300320030c0b30035
:103c9c00004f780031003700e08d8000f18d8000fe
:103cac0018c0b30002002000031f2400d3f2070049
:103cbc000000e000010035000044eb000804e000c7
:103ccc000b003a00a08d8000b18d800018c0b300ad
:103cdc0002002000031a2400c8f207000000e000d4
:103cec00010035000044eb000804e0000300320042
:103cfc0020c0b300004f780018003700c08d800042
:103d0c00d18d800018c0b30002002000031f2400d6
:103d1c00baf207000000e000010035000044eb009f
:103d2c000804e0000b003a00008e8000118e800029
:103d3c0018c0b30002002000031a2400aff20700e1
:103d4c000000e000010035000044eb000804e00036
:103d5c000200320010c0b300004f78001e40780003
:103d6c000004e00003003a0020c0b30050f0b7009c
:103d7c00110037001e407800e24f500003003a005b
:103d8c0040c0b30050f0b7000b0037001e40780065
:103d9c00e14f500003003a0060c0b30050f0b70090
:103dac00050037001e407800e34f500002003a0037
:103dbc00a0c0b30050f0b70050d0bf008080fb0013
:103dcc0051d0bf000080fb000000e900808f500044
:103ddc000200320050d0bf0051f0b7004f04780001
:103dec000080fa00000006000e00fa00000f7800b8
:103dfc000e80e8000288be00660047000488be0002
:103e0c006a0047000688be009e0078000e80e8001d
:103e1c00b0187800a01078001e0078006c004000ec
:103e2c00ea00570031187800211078001e00780045
:103e3c0064004000e600470031187800211078003b
:103e4c001e00780074004000ee0057003118780016
:103e5c00211078001e00780068004000ea0047003e
:103e6c0031187800211078001e0078007c0040008a
:103e7c00f200570031187800211078000080fa0009
:103e8c00000006002000fa00fe00470080087800c1
:103e9c007e00470010007800900090001000780021
:103eac000001be008000eb000e007800d006070079
:103ebc007e004700100078006400400090009000e5
:103ecc00100078000001be00410020000e007800b8
:103edc00c70607007e00470010007800680040000d
:103eec0090009000100078000001be0081002000be
:103efc000e007800be0607007e0047001000780018
:103f0c007000400090009000100078000001be008e
:103f1c00c10020000e007800b50607007e004700a7
:103f2c00100078007800400090009000100078009d
:103f3c000001be00010120000e007800ac06070055
:103f4c007e004700100078000002b0009000900046
:103f5c00100078000001be00410120000e00780026
:103f6c00a30607007e004700100078004003b00055
:103f7c0090009000100078000001be00810120002c
:103f8c000e0078009a0607007e00470010007800ab
:103f9c00c003b00090009000100078000001be003b
:103fac00c10120000e007800910607007e0047003a
:103fbc00100078000004b000900090001000780011
:103fcc000001be00010220000e00780088060700e8
:103fdc007e004700100078004004b0009000900074
:103fec00100078000001be00410220000e00780095
:103ffc007f0607007e004700100078008004b000a8
:10400c0090009000100078000001be00810220009a
:10401c000e007800760607000e0178008102200061
:10402c00300620006f0107000080fa000000060037
:10403c001200fa00889fbe008a9fbe008c9fbe00b3
:10404c00ec004700800878006e0047000288be0034
:10405c006c004700100078004003b000ee004700f1
:10406c0031187800211078006c004700100078009f
:10407c008002b000301f7800201778006c004700d9
:10408c00100078006c004000100278009002900044
:10409c006c00470010007800900090001000780031
:1040ac000001be000400be001ff307000004be00a8
:1040bc006c004700100078006c00400090009000ed
:1040cc00100078000002be0005f0a2006c00470052
:1040dc001000780090009000100078000001be00e5
:1040ec000400be0010f307000802be000001be0071
:1040fc006e00470090009000100078007d070700cc
:10410c00008fbe006c004700100078001002780091
:10411c00900290006c004700100078008002b00004
:10412c0090009000100078000001be000400be005a
:10413c00dcf307006c014700120178000204b000a8
:10414c000089be006c004700100078004002b000ef
:10415c0010047800900490006e00470002002000cc
:10416c00a33724009000900010007800eef20700b6
:10417c000001be000800be0006f207006c014700fb
:10418c00120178004202b0000089be006c004700aa
:10419c00100078007400400010027800900290002b
:1041ac006c00470010007800640040009000900004
:1041bc00100078000001be000400be00daf2070017
:1041cc000005be006c004700100078007400400031
:1041dc0090009000100078000002be0005f0a200d4
:1041ec006c004700100078006400400090009000c4
:1041fc00100078000001be000400be00caf20700e7
:10420c000004be006c004700100078004002b000b3
:10421c0010067800900690006c00470010007800a3
:10422c004003b000900090001000780002002000c5
:10423c00a3372400bcf207000001be000c00be0036
:10424c00d4f107000a02be000801be0029070700ce
:10425c006c014700120178004202b0000089be00d8
:10426c006c004700100078006400400010027800d9
:10427c00900290006c004700100078004002b000e3
:10428c0090009000100078000001be000400be00f9
:10429c0084f307006c014700120178004204b0005f
:1042ac000089be006c004700100078000003b000cd
:1042bc0090009000100078006e0247000001be00d4
:1042cc001400780094009000a9f10700020020006f
:1042dc00a337240073f30700640147000089be0074
:1042ec006c004700100078007c0040001002780041
:1042fc00900290006c0047001000780068004000ad
:10430c0090009000100078000001be000400be0078
:10431c0085f207000004be006c0047001000780016
:10432c007c00400090009000100078000002be005d
:10433c0005f0a2006c0047001000780068004000f7
:10434c0090009000100078000001be000400be0038
:10435c0075f207000802be000001be0064004700b1
:10436c009000900010007800e206070068014700fa
:10437c000089be006c004700100078000003b000fc
:10438c00ee00470031187800211078006c004700cf
:10439c001000780068004000900090001000780039
:1043ac006801470092019000120178003df307006c
:1043bc006c014700120178008204b0000089be0035
:1043cc006c004700100078000004b0001002780068
:1043dc00900290006c004700100078004004b00080
:1043ec0090009000100078000001be000400be0098
:1043fc0068f107000002be006c0047001000780056
:10440c008004b00090009000100078000001be0005
:10441c000400be005ff107004f06be004f05be0052
:10442c004f04be000080fa00000006000000fa00f5
:10443c00e08f8000f18f8000c0918800d1918800be
:10444c0000908000119080002094880031948800a6
:10445c00c0918000d19180000001be00402021005d
:10446c00f3fe0700a08f8800b18f88002094800095
:10447c00319480000001be0000252100ecfe0700f5
:10448c00c08f8800d18f8800c08f8000d18f8000b2
:10449c00a48f8000b58f80000001be000400be0018
:1044ac00020007000080fa00000006001000fa006d
:1044bc0068024700008abe006c0047000288be00fc
:1044cc00a48e8000b58e8000e08f8000f18f80007c
:1044dc000001be000400be0025f10700008fbe00e5
:1044ec00c48e8000d58e80000090800011908000da
:1044fc000001be000400be001df10700640147006e
:10450c000089be000080fa00000006000a00fa00d4
:10451c00e401470080097800660047000108780034
:10452c0068004700020878000040eb00004f78005c
:10453c00e0cfb3001e4f6800640047001000780005
:10454c004880de00004078001e4f68006400470081
:10455c0010007800004078001e4f6800660047008d
:10456c00100078004880de00004078001e4f680084
:10457c006600470010007800004078001e4f68006d
:10458c008000eb000e80e800010878000c0037007a
:10459c000e80e8009000780068004700100078005a
:1045ac0001004000104078001e4f68000e80e800ab
:1045bc00100078008000e8000e80e8000108780008
:1045cc000e80e8009000780066004700100078002c
:1045dc00808f5000eeff35001e4078000080fa00fe
:1045ec00000006000e00fa00889fbe00e80147009c
:1045fc00800978006a004700010878006c004700c9
:10460c00020878000f0478000f007800800478000e
:10461c006a00470010007800660040000001e900c5
:10462c00e4004700820878000000e8000000e80081
:10463c000000d100800040000f0078008187470007
:10464c000000e8000000d10000004000e600470038
:10465c00800878000000eb00000f7800660047002f
:10466c00100078001e004000e1cfb3000148780034
:10467c001e0fe80068004700100078004880de003c
:10468c008040780066004700100078001e00400053
:10469c00014878001e0fe800680047001000780001
:1046ac008040780066004700100078001e00400033
:1046bc00014878001e0fe8006a00470010007800df
:1046cc004880de00804078006600470010007800cb
:1046dc001e004000014878001e0fe8006a004700e9
:1046ec0010007800804078006600470010007800c9
:1046fc001e004000014878001e0fe8008000eb000f
:10470c000e80e80001087800100037000e80e800e9
:10471c00900078006c004700100078000100400009
:10472c009040780066004700100078001e004000a2
:10473c00014878001e0fe8000e80e8001000780099
:10474c008000e8000e80e800010878000e80e80088
:10475c00900078006a00470010007800808f5000ad
:10476c00eaff35006c004700100178006a00470032
:10477c0090007800680047001000780063ff070085
:10478c00e6004700910078009e8040008048780049
:10479c001e0fe8001e00e800e6004700110178003b
:1047ac008000780002007800150607008907780061
:1047bc00880778004f04be000080fa000000060055
:1047cc000200fa00004f780000808000e30f5000d8
:1047dc0023003200e30f500007003c00e10f5000b3
:1047ec0012003200e10f500016003c000000e00007
:1047fc00080032004b003700e50f50002b00320050
:10480c00e50f50001c003500e60f5000350032005b
:10481c00440037001e407800e24f400043003a004d
:10482c001000200000808800430037001e80fb0031
:10483c004800dd00108088002000200000808800e7
:10484c003d0037001e80fb001180800001004000fd
:10485c00108088003000200000808800360037006f
:10486c001e80fb004800dd002080880040002000f6
:10487c0000808800300037001e80fb002180800003
:10488c000100400020808800208080000000e000b3
:10489c0003003a00600020000080880026003700ea
:1048ac0050002000008088002300370031808000f9
:1048bc00c0392100010040001e4878003080800083
:1048cc000000e8003080880031808000208080006b
:1048dc00808f500017003500600020000080880099
:1048ec00150037002180800010808000c239210023
:1048fc0006ff070009f0b70009d0bf009e4f50001b
:10490c0006003a00208080008040780010808000f3
:10491c0000407800c2392100090007000030ef0088
:10492c00050037000030ef000300370000000000e6
:10493c0001003700000000000080fa0000000600b3
:10494c000400fa00889fbe008a9fbe00004f7800ca
:10495c000e00e800014878000e80e800020878009c
:10496c001e80fb0021052000810f50000b0032003f
:10497c0031062000810f50000d003200110520007f
:10498c00810f50004b003a000e80e80010007800b8
:10499c00104078005f000700470037000e80e800e9
:1049ac0010007800104078004700070042003700e4
:1049bc008000eb000e80e80010007800ea0307008e
:1049cc005080880061808800410020000e80e80043
:1049dc0010007800e4030700708088008180880054
:1049ec00810020000e80e80010007800de03070034
:1049fc0090808800a1808800c10020000e80e80013
:104a0c0010007800d8030700b0808800c1808800af
:104a1c00010120000e80e80010007800d20307008e
:104a2c00d0808800e1808800410120000e80e800e1
:104a3c0010007800cc030700f0808800018188000a
:104a4c00810120000e80e80010007800c6030700ea
:104a5c0010818800218188001a8180002b818000c0
:104a6c00f880800009818000b6808000c7808000bb
:104a7c0094808000a58080007280800083808000fc
:104a8c0050808000618080008a9fbe00889fbe009d
:104a9c00869fbe000403be000202be000001be00e1
:104aac0040202100d0fc0700ec87570000000000dc
:104abc0001003700000000004f05be004f04be008f
:104acc000080fa00000006000200fa00004f780097
:104adc006ed0bf009e40780080cf50000b0032009b
:104aec001e4078000004e000030032001e407800f5
:104afc00e14f500005003a001e417800e10621000c
:104b0c0082487800c0c0b30051f0b7000080fa00b2
:104b1c00000006000200fa00004f78001e417800e9
:104b2c0011052100824878000080fa000000060080
:104b3c000000fa001160800080ff2f0000806000f0
:104b4c001060880000fa20002060880023aca800c8
:104b5c00238ca80011618000f03f2f0000806000c2
:104b6c0000a0a000106188003000200020618800a7
:104b7c00c3aca800c38ca80011668000f03f2f00c6
:104b8c000080600000a0a0001066880030002000ab
:104b9c002066880001eca8000080fa0000000600e6
:104bac000600fa00881f7800008fbe0064004700e2
:104bbc000208780018c0b3006011b8001e0078001d
:104bcc009e0090000fef07000000e00001003c0089
:104bdc000044eb000804e0002a00320064004700a7
:104bec0010007800e10f500011003a001e0178000f
:104bfc009e019000428d8800538d880023cca90023
:104c0c0015eea80023eca800408d8000518d80008b
:104c1c00020020000322240022f107006b0407008d
:104c2c001bef070000007800306188004800370057
:104c3c0064004700100078000000e00044003a00d7
:104c4c001e0178009e019000828d8800938d880053
:104c5c00c3cca90024eea800c3eca800808d800072
:104c6c00918d800002002000032224000df107002a
:104c7c005604070006ef0700000078003066880035
:104c8c003300370018c0b3006011b8001e00780064
:104c9c009e009000d9ee07000000e00001003500f6
:104cac000044eb000804e0002900320064004700d7
:104cbc0010007800e10f500011003a001e0178003e
:104ccc009e019000428d8800538d880023eca90032
:104cdc0015cea80023cca800408d8000518d8000fb
:104cec000200200003222400eef007003704070026
:104cfc00e7ee0700000078003061880014003700f0
:104d0c0064004700100078000000e00010003a003a
:104d1c001e0178009e019000828d8800938d880082
:104d2c00c3eca90024cea800c3cca800808d8000c1
:104d3c00918d80000200200003222400d9f007008e
:104d4c0022040700d2ee07000000780030668800cd
:104d5c004f0478000080fa00000006000000fa0002
:104d6c00889fbe008a9fbe00848d8000958d800038
:104d7c00608d8000718d800018c0b3000001be00f2
:104d8c000400be009dee07000000e00001003500ad
:104d9c000044eb000804e0000e003200688d800037
:104dac00798d80008a8d80009b8d800050838000df
:104dbc008000eb00d4ee07000001be000a00be002c
:104dcc00f4ee07000801be0030040700808d880057
:104ddc00918d8800848d8000958d8000608d800081
:104dec00718d800018c0b3000001be000400be002d
:104dfc0084ee07000000e00001003c000044eb00e2
:104e0c000804e0000e003200688d8000798d80006f
:104e1c008a8d80009b8d8000508380008000eb0089
:104e2c00b9ee07000001be000a00be00d0ee07007c
:104e3c000801be00fb030700808d8800918d88005f
:104e4c00808d8000918d800018c0b3006011b80077
:104e5c006cee07000000e00001003c000044eb0099
:104e6c000804e00004003200c3cca90024eea80022
:104e7c00c3eca80003003700c3eca90024cea800a3
:104e8c00c3cca800808d8000918d8000cf030700db
:104e9c00020020000322240082f007007cee0700b1
:104eac000000780030668800448d8000558d8000ad
:104ebc00208d8000318d800018c0b3000001be0031
:104ecc000400be004dee07000000e00001003500bc
:104edc000044eb000804e0000e003200288d800036
:104eec00398d80004a8d80005b8d8000508380005e
:104efc008000eb0084ee07000001be000a00be003b
:104f0c00a4ee07000801be00e0030700408d8800f6
:104f1c00518d8800448d8000558d8000208d80003f
:104f2c00318d800018c0b3000001be000400be002b
:104f3c0034ee07000000e00001003c000044eb00f0
:104f4c000804e0000e003200288d8000398d8000ae
:104f5c004a8d80005b8d8000508380008000eb00c8
:104f6c0069ee07000001be000a00be0080ee0700db
:104f7c000801be00ab030700408d8800518d8800ee
:104f8c00408d8000518d800018c0b3006011b800b6
:104f9c001cee07000000e00001003c000044eb00a8
:104fac000804e0000400320023cca90015eea80090
:104fbc0023eca8000300370023eca90015cea800b1
:104fcc0023cca800408d8000518d80007f0307000a
:104fdc00020020000322240032f007002cee070010
:104fec0000007800306188004f05be004f04be0001
:104ffc000080fa00000006000600fa00008fbe00d8
:10500c0064004700024878006400470010407800b4
:10501c00e14f500005003a001e0178009e019000ff
:10502c00228d8800338d8800050037001e00780023
:10503c009e00900001f0a200608d8800718d8800a8
:10504c000080fa00000006000000fa0013e1a9003d
:10505c0011e1a9001061a8001021a90081088000ad
:10506c00f0fc2f0000806000800888000a21ef000f
:10507c000621ef00b0be20007008880000202c0034
:10508c00600888002142800080ff2f0000806000b3
:10509c000000a000204288000108a9002108a800f7
:1050ac0011e1a8000080fa00000006000000fa00e0
:1050bc0000002000a13724008600070005e1a900ac
:1050cc000421a9000068a9002068a80005e1a80037
:1050dc000080fa00000006000000fa00000020002a
:1050ec00a1472400070007001fe1a9001e21a90009
:1050fc000368a9002368a8001fe1a8000080fa003b
:10510c00000006000400fa00881f7800008fbe0023
:10511c00f1088000f0fc2f0000806000f00888008f
:10512c001e0178009e0190000068290081c12400b6
:10513c00fdee070018c0b30002f02f00f377240037
:10514c00b0ed07000000e00001003c000044eb0063
:10515c000804e00054003200f1088000f0fc2f003d
:10516c00008060000040a000f00888001e0178005c
:10517c009e0190000068290081c12400eaee07001e
:10518c000200200003102400e7ee070018c0b30053
:10519c0002f02f00f37724009aed07000000e000e6
:1051ac0001003c000044eb000804e0003200320037
:1051bc00f1088000f0fc2f00008060000050a0007f
:1051cc00f00888001e0178009e01900000682900fc
:1051dc0081c12400d4ee0700020020000328240023
:1051ec00d1ee070018c0b30002f02f00f3772400b3
:1051fc0084ed07000000e00001003c000044eb00df
:10520c000804e00010003200f108800000032000c8
:10521c0001007000f00888001e0178009e019000cb
:10522c000068290081c12400bfee070002002000a5
:10523c0003382400bcee070074ed07000000780072
:10524c00d0088800200037001e0178009e019000d5
:10525c000068290081c12400b3ee07000200200081
:10526c0003282400b0ee070068ed0700000078006a
:10527c00d0088800140037001e0178009e019000b1
:10528c000068290081c12400a7ee0700020020005d
:10529c0003102400a4ee07005ced0700000078006a
:1052ac00d0088800080037001e0178009e0190008d
:1052bc000068290081c124009bee070053ed070014
:1052cc0000007800d00888004f0478000080fa00b5
:1052dc00000006000400fa00881f7800008fbe0052
:1052ec0021088000f0fc2f0000806000200888005e
:1052fc001e0178009e0190000068290081c12400e5
:10530c0089ee070018c0b30002f02f00f3772400d9
:10531c003ced07000000e00001003c000044eb0005
:10532c000804e0005400320021088000f0fc2f003b
:10533c00008060000040a000200888001e0178005a
:10534c009e0190000068290081c1240076ee0700c0
:10535c00020020000310240073ee070018c0b300f5
:10536c0002f02f00f377240026ed07000000e00088
:10537c0001003c000044eb000804e0003200320065
:10538c0021088000f0fc2f00008060000050a0007d
:10539c00200888001e0178009e01900000682900fa
:1053ac0081c1240060ee07000200200003282400c5
:1053bc005dee070018c0b30002f02f00f377240055
:1053cc0010ed07000000e00001003c000044eb0081
:1053dc000804e000100032002108800000032000c7
:1053ec0001007000200888001e0178009e019000ca
:1053fc000068290081c124004bee07000200200048
:10540c000338240048ee070000ed07000000780088
:10541c0010088800200037001e0178009e019000c3
:10542c000068290081c124003fee07000200200023
:10543c00032824003cee0700f4ec07000000780081
:10544c0010088800140037001e0178009e0190009f
:10545c000068290081c1240033ee070002002000ff
:10546c000310240030ee0700e8ec07000000780081
:10547c0010088800080037001e0178009e0190007b
:10548c000068290081c1240027ee0700dfec07002b
:10549c0000007800100888004f0478000080fa00a3
:1054ac00000006000000fa00c301a8000080eb0019
:1054bc00e00e88000080eb00f00e8800c1e1a8002f
:1054cc000080fa00000006000000fa00c305a800e6
:1054dc000080eb00e02e88000080eb00f02e8800ae
:1054ec00c1e5a8000080fa00000006000800fa00e0
:1054fc00889fbe008a9fbe007081800081818000e1
:10550c00308188004181880090818000a1818000d9
:10551c005081880061818800300e80008000eb0093
:10552c00008fbe00500e80008000eb00c000dd003c
:10553c00000020001e0f40005e974800302e8000b7
:10554c008000eb00640147000089be00502e8000f3
:10555c008000eb00c000dd0000002000640147006b
:10556c0092019000120178000200400083804800f4
:10557c00640147000089be001e0078009e00900068
:10558c00deec070082b12500a3782300c5ee0700ee
:10559c007081880081818800640047009000900031
:1055ac0010007800d5ec070082b12500a3782b0001
:1055bc00bcee070090818800a18188007481800076
:1055cc008581800030818000418180000001be0017
:1055dc000400be00e6ec0700b0818800c1818800a1
:1055ec0094818000a58180005081800061818000c1
:1055fc000001be000400be00ddec0700d081880075
:10560c00e1818800b4818000c5818000d081800058
:10561c00e18180000001be000400be00d4ec070054
:10562c0002002800a3352400bfed0700f08188009c
:10563c0001828800b0818000c181800002002000be
:10564c00a337240097ee0700608e8800718e8800c7
:10565c00d0818000e181800002002000a33724006b
:10566c0090ee0700808e8800918e8800648e8000fa
:10567c00758e8000808e8000918e80000001be00af
:10568c000400be00c3ec070002002000030024004d
