:020000040000fa
:080000000002040000000000f2
:020000040000fa
:04000800de03000013
:020000040000fa
:04000c00de0300000f
:020000040000fa
:04001000de0300000b
:020000040000fa
:04001400de03000007
:020000040000fa
:04001800de03000003
:020000040000fa
:04001c00de030000ff
:020000040000fa
:04002000de030000fb
:020000040000fa
:04002400de030000f7
:020000040000fa
:04002800de030000f3
:020000040000fa
:04002c00de030000ef
:020000040000fa
:04003000de030000eb
:020000040000fa
:0400340002030000c3
:020000040000fa
:04003800de030000e3
:020000040000fa
:04003c00de030000df
:020000040000fa
:04004000de030000db
:020000040000fa
:04004400de030000d7
:020000040000fa
:04004800fa020000b8
:020000040000fa
:04004c00de030000cf
:020000040000fa
:04005000de030000cb
:020000040000fa
:040054009a0300000b
:020000040000fa
:040058007003000031
:020000040000fa
:04005c004c03000051
:020000040000fa
:04006000de030000bb
:020000040000fa
:04006400de030000b7
:020000040000fa
:04006800de030000b3
:020000040000fa
:04006c00de030000af
:020000040000fa
:04007000de030000ab
:020000040000fa
:04007400de030000a7
:020000040000fa
:04007800de030000a3
:020000040000fa
:04007c00de0300009f
:020000040000fa
:04008000de0300009b
:020000040000fa
:04008400de03000097
:020000040000fa
:04008800de03000093
:020000040000fa
:04008c00de0300008f
:020000040000fa
:04009000de0300008b
:020000040000fa
:040094002203000043
:020000040000fa
:04009800de03000083
:020000040000fa
:04009c00de0300007f
:020000040000fa
:0400a000de0300007b
:020000040000fa
:0400a400de03000077
:020000040000fa
:0400a800de03000073
:020000040000fa
:0400ac00de0300006f
:020000040000fa
:0400b000de0300006b
:020000040000fa
:0400b400de03000067
:020000040000fa
:0400b800de03000063
:020000040000fa
:0400bc00de0300005f
:020000040000fa
:0400c000de0300005b
:020000040000fa
:0400c400de03000057
:020000040000fa
:0400c800de03000053
:020000040000fa
:0400cc00de0300004f
:020000040000fa
:0400d000de0300004b
:020000040000fa
:0400d400de03000047
:020000040000fa
:0400d800de03000043
:020000040000fa
:0400dc00de0300003f
:020000040000fa
:0400e000de0300003b
:020000040000fa
:0400e400de03000037
:020000040000fa
:0400e800de03000033
:020000040000fa
:0400ec00de0300002f
:020000040000fa
:0400f000de0300002b
:020000040000fa
:0400f400de03000027
:020000040000fa
:0400f800de03000023
:020000040000fa
:0400fc00de0300001f
:020000040000fa
:04010000de0300001a
:020000040000fa
:04010400de03000016
:020000040000fa
:04010800de03000012
:020000040000fa
:04010c00de0300000e
:020000040000fa
:04011000de0300000a
:020000040000fa
:04011400de03000006
:020000040000fa
:04011800de03000002
:020000040000fa
:04011c00de030000fe
:020000040000fa
:04012000de030000fa
:020000040000fa
:04012400de030000f6
:020000040000fa
:04012800de030000f2
:020000040000fa
:04012c00de030000ee
:020000040000fa
:04013000de030000ea
:020000040000fa
:04013400de030000e6
:020000040000fa
:04013800de030000e2
:020000040000fa
:04013c00de030000de
:020000040000fa
:04014000de030000da
:020000040000fa
:04014400de030000d6
:020000040000fa
:04014800de030000d2
:020000040000fa
:04014c00de030000ce
:020000040000fa
:04015000de030000ca
:020000040000fa
:04015400de030000c6
:020000040000fa
:04015800de030000c2
:020000040000fa
:04015c00de030000be
:020000040000fa
:04016000de030000ba
:020000040000fa
:04016400de030000b6
:020000040000fa
:04016800de030000b2
:020000040000fa
:04016c00de030000ae
:020000040000fa
:04017000de030000aa
:020000040000fa
:04017400de030000a6
:020000040000fa
:04017800de030000a2
:020000040000fa
:04017c00de0300009e
:020000040000fa
:04018000de0300009a
:020000040000fa
:04018400de03000096
:020000040000fa
:04018800de03000092
:020000040000fa
:04018c00de0300008e
:020000040000fa
:04019000de0300008a
:020000040000fa
:04019400de03000086
:020000040000fa
:04019800de03000082
:020000040000fa
:04019c00de0300007e
:020000040000fa
:0401a000de0300007a
:020000040000fa
:0401a400de03000076
:020000040000fa
:0401a800de03000072
:020000040000fa
:0401ac00de0300006e
:020000040000fa
:0401b000de0300006a
:020000040000fa
:0401b400de03000066
:020000040000fa
:0401b800de03000062
:020000040000fa
:0401bc00de0300005e
:020000040000fa
:0401c000de0300005a
:020000040000fa
:0401c400de03000056
:020000040000fa
:0401c800de03000052
:020000040000fa
:0401cc00de0300004e
:020000040000fa
:0401d000de0300004a
:020000040000fa
:0401d400de03000046
:020000040000fa
:0401d800de03000042
:020000040000fa
:0401dc00de0300003e
:020000040000fa
:0401e000de0300003a
:020000040000fa
:0401e400de03000036
:020000040000fa
:0401e800de03000032
:020000040000fa
:0401ec00de0300002e
:020000040000fa
:0401f000de0300002a
:020000040000fa
:0401f400de03000026
:020000040000fa
:0401f800de03000022
:020000040000fa
:0401fc00de0300001e
:020000040000fa
:04020000de03000019
:020000040000fa
:04020400de03000015
:020000040000fa
:04020800de03000011
:020000040000fa
:04020c00de0300000d
:020000040000fa
:04021000de03000009
:020000040000fa
:04021400de03000005
:020000040000fa
:04021800de03000001
:020000040000fa
:04021c00de030000fd
:020000040000fa
:04022000de030000f9
:020000040000fa
:04022400de030000f5
:020000040000fa
:04022800de030000f1
:020000040000fa
:04022c00de030000ed
:020000040000fa
:04023000de030000e9
:020000040000fa
:04023400de030000e5
:020000040000fa
:04023800de030000e1
:020000040000fa
:04023c00de030000dd
:020000040000fa
:04024000de030000d9
:020000040000fa
:04024400de030000d5
:020000040000fa
:04024800de030000d1
:020000040000fa
:04024c00de030000cd
:020000040000fa
:04025000de030000c9
:020000040000fa
:04025400de030000c5
:020000040000fa
:04025800de030000c1
:020000040000fa
:04025c00de030000bd
:020000040000fa
:04026000de030000b9
:020000040000fa
:04026400de030000b5
:020000040000fa
:04026800de030000b1
:020000040000fa
:04026c00de030000ad
:020000040000fa
:04027000de030000a9
:020000040000fa
:04027400de030000a5
:020000040000fa
:04027800de030000a1
:020000040000fa
:04027c00de0300009d
:020000040000fa
:04028000de03000099
:020000040000fa
:100400004f1e21000eff2c000e018800000000008e
:10041000000020000000e000020032000001200087
:100420002002880014000700e60007000000e0003a
:1004300003003a0040d221000100200002003700f2
:100440000000200001002000810f70000100320038
:100450000f000700000020000000e0000200320052
:1004600000000200000000002c0c02000000000050
:100470000040da000000fe00200020000000e00044
:1004800002003200100020009001880000000600e9
:10049000a1028800800478000000eb001f003700f4
:1004a000e284440054a0b4009905ba00e2844400f8
:1004b00054a0b4009906ba00e284440054a0b400e9
:1004c0000006eb00476fde00fd07b200ae018800ba
:1004d000636ce10003003a000ad801000000eb0061
:1004e0000e003700606ce10008003a00004deb00a0
:1004f0000a05e800020039003420ec000af0a000f0
:100500008b05e900f9ff3e00040037006168e10057
:10051000010032000086eb000b00070019c7ba008b
:100520000e04e0001905ba0003003a000a00e000da
:10053000dbff3a0000000600fe07b200ae028800b2
:100540008a047800f5ff37000cd0a300e20f4d00bd
:100550001c003b0089027800354dba000a05e8000e
:10056000020039003420ec000af0a0008b05e900fd
:100570000f003200254dba000a05e80002003900dc
:100580003420ec000af0a0008b05e90008003200de
:100590000c00e0000600320015cdba000a05e800a4
:1005a000020039003420ec000af0a0008b05e900bd
:1005b0008984e80054a0b4000b00e000e2ff3a0098
:1005c000000006009902ba00055d78008b05e9007d
:1005d000f7ff3200c82ade00055d78008b05e900d0
:1005e000f3ff32000c00e000f1ff320019ddba0029
:1005f000eeff37000000fa000108a9000080fa00b1
:10060000004006003600f800809fbe00829fbe00ba
:10061000849fbe00869fbe000000fa000068a9000b
:100620009f0807004f0c07000080fa004f03be0030
:100630004f02be004f01be004f00be003600f90061
:10064000004006003600f800809fbe00829fbe007a
:10065000849fbe00869fbe000000fa000368a900c8
:10066000c0808000d180800061004000e0804800b0
:10067000c0808800d1808800b00507000080fa00a3
:100680004f03be004f02be004f01be004f00be0030
:100690003600f90000400600801f78000000fa00d4
:1006a00001a8a90000188000d08e880010188000d2
:1006b000e08e880020188000f08e880030188000be
:1006c000008f880040188000108f880010c0b30091
:1006d0002df0b7000080fa004f00780000400600bf
:1006e0003600f800809fbe00829fbe00849fbe003f
:1006f000869fbe000000fa000188a90011818000d9
:1007000000818000808f500002003200b00b070093
:10071000010037002470ef000080fa004f03be0094
:100720004f02be004f01be004f00be003600f90070
:10073000004006003600f800809fbe00829fbe0089
:10074000849fbe00869fbe000000fa000168a900d9
:1007500010118000640060000000e0000100320021
:100760002242a90010118000620060000000e00039
:10077000060032002222a900050037003011800057
:1007800000407800070c070001003700000000005f
:1007900010118000610060000000e000f7ff3a00e7
:1007a0000080fa004f03be004f02be004f01be00a2
:1007b0004f00be003600f900004006000040da009d
:1007c0000000fe000000050014002000aa0337000e
:1007d000f4ff2f00a80337000001be003c00070013
:1007e0000470a70003f0a1006509b10016003200f3
:1007f0000d0035006828e10006003500f0ff2f00ed
:10080000f1ff27000300e00013003b000100280077
:100810000000050000004000818048008502e900da
:10082000fcff3a0008003700f88f420002003c004d
:100830008000eb00000005008100d1000080d300a3
:100840008502e800fcff3a000300e00002003b00e4
:1008500060001000e0801800000006000001be00eb
:100860001b0007000470a70003f0a10003f8a30019
:1008700013003a006509b10010003200090035008c
:100880006928e10002003500010028000000050091
:1008900000004000818048008502e900fcff3a002a
:1008a00000000600f88f4200050035008100d100ed
:1008b0000080d3008502e800fcff3a00000006003b
:1008c0008000eb00000005006011b80085033700d0
:1008d000c70ade00f107b200f50fb20008003200cf
:1008e000e1cf4200020032000170a00024000500a8
:1008f000810f70000100320004080500440005006b
:10090000810f700002003a00140005008502e90022
:100910000000400081c04800fcff3b000170a000c7
:100920002400050007f82700078361000638e1006e
:1009300004003a00f70720008783610087037100f5
:1009400001003a0003f0a200889fbe008a9fbe000b
:100950008c9fbe00470ade000480a100c71ade009b
:100960000580a100070028000785600087856100d9
:10097000f70f20000720e1009e0032000728e10069
:100980009c003200010678000400e000b400320050
:10099000f7072000878060000170a0000500e000dc
:1009a000c0003200f7072000878161000370a000bb
:1009b000050652000f003a000b50e1000b00320018
:1009c0000308e10002003a000200e1007e0032006c
:1009d0000204500083845800040031000001fd002f
:1009e0008101fd008402fd008a05fd006044b8001d
:1009f000210037000520e10005003d000001fd0059
:100a00008101fd008402fd008a05fd0005065200fb
:100a10007a60e100050035000170a1004722dd0089
:100a2000848070008a807000630037006044b800e2
:100a3000ef02660007ff2f00070666000500e000d2
:100a400006003400f08312008714dd000511de007b
:100a5000071bdd00060171008519de007060e100f2
:100a6000050035000904780082047800030178004d
:100a70008001eb00700656000b50e10003003a00c5
:100a80000200400083804800040037006004140026
:100a9000e0841c0002005800838058000188a300f5
:100aa000060032008100d1000080d3008984d30089
:100ab0000884d3000402e800270037000178a3006f
:100ac00025003a000100e000030032008186cf00db
:100ad000698656000a0037008c0020000000e00004
:100ae00004003a0009007800880478000004eb0054
:100af000700252008086cf000d0646000c06e90009
:100b00007060e10006003500800078000900780080
:100b1000880478000004eb00700656007002520052
:100b20000c00e0000c0034008c08dd00f00316001f
:100b30000703de00868070000c00dd00074bde003e
:100b4000060070008c4cdd000743de0086847400d4
:100b50000c44dd000c0252006120e1002000350051
:100b6000610160000700280087816400f7ff27000b
:100b700087836400070374000300e000060032006e
:100b800082037300040032000000e800e0804800a7
:100b90000188a3000e003a00f70f20000720e100b3
:100ba0004a003d000170a1004722dd008100720073
:100bb0008a8070000000be004f06be004f05be00d8
:100bc0004f04be00000006006000b800faff3700c6
:100bd0008100d1000080d3000402e800eeff37005e
:100be0000401780089017400a10107008a80700067
:100bf000f1ff3700f7010700070278000001fd0050
:100c00008101fd00f301070087027800850372006f
:100c10000778a300040032000001fd008101fd00ff
:100c200006020700e4ff3700850362000768a3009f
:100c3000080032000b50e10003003200f0ff2f00eb
:100c4000f1ff2700dcff37000001fd008101fd00fe
:100c5000d9ff37000468a300d7ff3200faff37003e
:100c6000f8ff2700888360000b003a000000e000d6
:100c700009003a008303640082837300020032009b
:100c80000200be00ccff37000b50e100ceff3a005f
:100c90000200be00c8ff370014002000810064007d
:100ca0003eff3700f8ff27008883610004003a0008
:100cb0000200e00002003a008c007800beff37001e
:100cc000150020008301640039ff370001f8270078
:100cd0000000200081007500b7ff3700889fbe002c
:100ce0008a9fbe008c9fbe001b0020000202be0037
:100cf0000586680006002800060666004709de0033
:100d0000f20fb200820032000243e800800032009d
:100d1000c729de00f30fb2007d0032000343e80074
:100d20007b003200f107b2000170a000f507b200ad
:100d30000570a000c708dd004903de008680700052
:100d40004700dd00c72add004923de0086827200ed
:100d50004722dd000305510004035000858358003d
:100d60000300310000004000818048000a05e900ce
:100d70008c1f78008a9fbe000400500085805800b8
:100d80000402420085824a00000040008180480041
:100d90000005eb000004be006033b8000406be008e
:100da0000d48e10056003100110009004dccd8007b
:100db0000c01b8000d02b8008481410060824a0035
:100dc0008283530003045c0084845c0060055d0042
:100dd0000a00e00025003a00800578000d40e1009f
:100de00049003100880078000700780011000900f0
:100df0004d88d8000c01b8000d02b8008481410074
:100e000060824a006003110083835b0004045c007d
:100e1000e0845c000900e00021003a004f01be00c0
:100e20000300e0002b003200e301600007067300be
:100e30008c81710001003200640070004200de000d
:100e40004e5edd000c007000c258de0001e0a00024
:100e500083010700cf017800818071004f06be003a
:100e60004f05be004f04be00000006008c83430007
:100e70000d044c00e0844c0060054d000000e900ca
:100e80000a00e000d4ff32008c8343000d044c00c4
:100e9000e0844c0060054d000000e900ceff370003
:100ea0000c0343008d834b0060044c00e0844c0035
:100eb0000000e9000900e000d8ff32000c03430005
:100ec0008d834b0060044c00e0844c000000e9007e
:100ed000d2ff37004200de004e5edd000c007000e5
:100ee000c258de0001e0a000cf0178000300e0005e
:100ef000daff320060001000e0801800d7ff3700f2
:100f0000f0ff2f00aaff3700f0ff2f00b9ff3700d6
:100f10000404be002f010700870678000004fd00ce
:100f20008104fd002b010700078366000678a300fb
:100f3000030032000960a7000800be002c00370043
:100f40000d78a300020032000800be002800370020
:100f50000778a30026003a0001f0a10009f0a100e3
:100f60000668a30003003200f1ff2700f0ff2f0006
:100f7000baff37000d68a300030032000800be006e
:100f80008c807000b5ff37000768a30007003a00a7
:100f90000648a30003003200f1ff2700f0ff2f00f6
:100fa000aeff37000d48a300030032006000b80018
:100fb0008c807000a9ff37000748a30004003200ae
:100fc00001f82700000020008c807000a3ff37008c
:100fd000760107000004fd008104fd000205780091
:100fe000720107000802be008a01780059ff37002d
:100ff0000160a000120220007281880097ff370074
:101000000100e000120032000500e0001000320094
:10101000889fbe008a9fbe008c9fbe000006eb002a
:1010200001f8a3000300320060001000e080180007
:101030000cf0a00005f8a3000300320060021200cb
:10104000e0821a000cf0a2008005eb0041ff37009f
:101050006000b80002000500038368000700280054
:1010600007036300470ade000480a100c71ade0000
:101070000580a100f70f20000720e10042003200a8
:101080000728e10040003200889fbe008a9fbe0012
:101090008c1f7800f107b200f307b2000400e000f3
:1010a000640032000170a0000500e000680032001a
:1010b0000370a00085054200eb07b1000204b800f0
:1010c0000302b8008484440060854a00020ab80024
:1010d000848444000a854a00030ab80004054500d8
:1010e000040033000804d0008984d2000a85d200ad
:1010f0008b05e9006158e1003d0035000210200039
:10110000090161000308200089816100f7072000c0
:101110008783640008867300c84cde00c853dd0076
:10112000878474004855de000300e00006003200aa
:1011300082037600040032008904e80060054d0057
:101140000a88a3000c003a00f70f20000758e100be
:1011500044003d000a70a100c75ddd000a857500ee
:101160008a007300090078004f0678004f05be0022
:101170004f04be00000006000a05d1008984d30098
:101180008b05e800f0ff3700881f78000604780020
:1011900090000700070278000001fd008101fd00ba
:1011a0008c00070087027800850372000778a3008f
:1011b000050032000001fd008101fd009f000700d5
:1011c0004f04780000000600850372000748a30062
:1011d00003003200f0ff2f00f1ff2700f8ff370077
:1011e0000000200001f8270088807000f4ff37001d
:1011f000880178004848dd00808171004848de00a1
:10120000c850dd0001007000c850de000604780000
:101210000b0178001600070088807000d2ff3700ad
:101220000500e00005003200170020003a0007002a
:101230009dff370081037000f9ff3a0086007800b7
:101240004f0678004f05be004f04be0000000500a9
:1012500083037100f9ff3200270020002e000700f1
:1012600094ff370001f8270086807000f4ff3700f4
:101270000100e00026003200610111007810e10059
:1012800023003c006022b8007010e100040035002b
:1012900080027800010078008000eb0070015100ae
:1012a0000200e0000900340070031100062add008e
:1012b000822ade008603dd00878272000200de00e3
:1012c000860bdd00070070008208de00848171005b
:1012d000f4ff27000482620084817100040028006a
:1012e000848262006102600005f0a6000000060032
:1012f00004827100070032000000e800e08048002e
:10130000000006000002be006000b800efff3700da
:101310006000b80000000600889fbe000004eb00db
:101320006138e10016003a000100e00008003a00d0
:10133000c800de004800dd00880020000100e00059
:1013400003003a00c800de004800dd0068044400e5
:101350008184cf00e9845400060034008908dd0050
:10136000f08314008703de00878070000900dd0031
:1013700009044400610214004f04be00000006008e
:101380000300e00008003a00c811de004811dd004b
:10139000880020000300e00003003a00c811de00ce
:1013a0004811dd00680444008384cf00e9845400c0
:1013b000060034008919dd00f08314008713de0075
:1013c000878171000911dd0009044400e102140065
:1013d000e9ff37002700200001f0a70017002000d8
:1013e000470bde00f60fb200040032000643e800af
:1013f0000a0032004702b300000006000103780033
:10140000f607b2000603700002003a000703b300bb
:10141000000006008702b300000006000103780008
:10142000f607b20006037000020032000770a00049
:10143000000006000760a000000006000478a3007a
:10144000040032000578a300030032000168a30005
:1014500001003a000200be000160a000000006008a
:1014600081017000270032008002eb0001f8a30028
:101470000300320060001000e0801800150020001a
:10148000f40720000202420020003400f70320008d
:1014900087036000060420000003630002082000a8
:1014a000000161004700de00c909dd000080710015
:1014b000c708de000600e000080032008703710064
:1014c000060032001000b0000180b0000188a300c7
:1014d00002003200c108de000402e800f107b20099
:1014e000f30f20000320e10003003d004722dd0050
:1014f000810072002900370001f827000000eb008e
:10150000260037006000b8000000060068021200e4
:101510007f20e100020034006000b8001f003700a7
:101520006011b8007020e1000400350080017800ef
:10153000010078008000eb00700252000400e0001f
:1015400009003400f00312000719dd008419de00e1
:101550000703dd00868171000400de00070bdd005b
:10156000060070008408de00f7ff27008383630015
:1015700087037100060028000303630007003200a0
:101580000700e00003003a0061016000028173007f
:10159000020032001000b0000180b0000500a6007b
:1015a0000000060001f0a000000006004f0ade0067
:1015b0004709de00f107b200f20fb2000b00320063
:1015c000f207b1000170a000c708dd00c901de000c
:1015d000838070004700dd000400a60000000600c4
:1015e00060001000e080180000000600810f70000d
:1015f00001003a00000006008182cf000500e000f3
:1016000010003e008082cf00ee8242007028e10090
:101610000400390007003e00800078000000eb0065
:101620000e003700708312008600de000500dd002a
:101630000a003700708352008600dd000000eb00d6
:1016400006003700e28252008508dd007083120038
:101650000603de00868070000500dd007507b0001f
:101660000501ea000400a60000000600600010006a
:10167000e080180000000600889fbe008a9fbe0020
:10168000841f78006c0007004f00780011003300c1
:10169000f0ff2f00838f6c0006003b0004056500ff
:1016a0000a00a7000800370009f0a600100020007b
:1016b00008003700820f5400838f5c00030039005c
:1016c0001000200001003e000000200009f0a700eb
:1016d0000000ea004f05be004f04be000000e0001d
:1016e00000000600889fbe008a9fbe000082700036
:1016f0000402710004827100260032000004be0062
:101700000200be006011b8006b09200095022000a5
:101710000182cf000a0039000541b1000082cf00ec
:10172000070039000541b1000982cf0004003900eb
:101730000541b1000882cf00010039000541b10028
:1017400005425200120032000a003b008281710003
:10175000610164008100d1000080d3008984d3003e
:101760000884d3008b05e8000442e800f7ff3a0044
:10177000070037000804440089844c00000048003a
:10178000818048008b05e9000442e900f9ff3a0036
:10179000030007004f05be004f04be000000060016
:1017a00081002000618055000b003d000b002000ef
:1017b00061fe2f000100e1001d00340082817100f4
:1017c000610164008904d1000884d3000000e800ae
:1017d000faff3a007100200061006400030070000d
:1017e000020060000900320061044400e0844c0003
:1017f0000988a500050032008b05e8006808e100b3
:1018000002003a008904d1000884d300f20f2000be
:101810000258e10005003d00c75ddd00f907b20098
:101820008980750008007800000006000bf827008a
:101830008b007800000005000004be0024fc0700b7
:101840000003be000405be000200be0020fc07002d
:08185000844f75000000060042
:020000040000fa
:101858000a00fa00889fbe004e080700a00807008b
:10186800c7040700df04070080030700810707009b
:101878000e08070064cea80064eea800254ea80054
:10188800be0707000004e00018013200bf07070088
:10189800b6070700000f78001e00780010007800d7
:1018a800008088001e80e800100078001080880002
:1018b8009e00780064804000100078002080880036
:1018c8009e00780066804000100078003080880014
:1018d8009e007800688040001000780040808800f2
:1018e8001e80e800100078008000eb00f4fb070081
:1018f8003233230033052400d5fd07000200200001
:1019080003582400f3fc0700d2cc2c00c3042400a5
:10191800cffd07000e81e8000089be000e80e800b8
:101928001001780090019000000020008120240020
:10193800e8fc070002002000030a2400f7fb070068
:10194800508e8800618e88001e0078001000780094
:101958008000eb00dafb0700323323003305240054
:10196800bbfd07000200200003582400d9fc070033
:10197800d2cc2c00c3042400b5fd07000e81e8007a
:101988000089be000e80e8001001780090019000e8
:101998000000200081202400cefc07000200200067
:1019a800030a2400ddfb0700108e8800218e8800c2
:1019b8009e00780064804000100078008000eb00f2
:1019c800bffb07003233230033052400a0fd0700c6
:1019d8000200200003582400befc0700d2cc2c00d3
:1019e800c30424009afd07000e81e8000089be00a8
:1019f8000e80e8001001780090019000000020009f
:101a080081202400b3fc070002002000030a240000
:101a1800c2fb0700908e8800a18e88009e00780087
:101a280068804000100078008000eb00a4fb0700ed
:101a3800323323003305240085fd0700020020000f
:101a480003582400a3fc0700d2cc2c00c3042400b4
:101a58007ffd07000e81e8000089be000e80e800c7
:101a680010017800900190000000200081202400df
:101a780098fc070002002000030a2400a7fb0700c7
:101a8800708e8800818e88009e00780066804000f5
:101a9800100078008000eb0089fb07003233230038
:101aa800330524006afd07000200200003582400c3
:101ab80088fc0700d2cc2c00c304240064fd070076
:101ac8000e81e8000089be000e80e8001001780051
:101ad8009001900000002000812024007dfc070078
:101ae80002002000030a24008cfb0700308e8800c7
:101af800418e8800908e8000a18e800018c0b300af
:101b080002002000031224002dfb07000000e00063
:101b1800010035000044eb000804e0000400320036
:101b28000000200001122400908e8800a18e8800f9
:101b3800708e8000818e800018c0b30002002000e3
:101b4800031224001efb07000000e000010035001e
:101b58000044eb000804e00004003200000020000c
:101b680001122400708e8800818e8800508e8000bb
:101b7800618e800018c0b300020020000312240008
:101b88000ffb07000000e000010035000044eb00f7
:101b98000804e000040032000000200001122400c4
:101ba800508e8800618e8800308e8000418e8000c3
:101bb80018c0b300020020000312240000fb070035
:101bc8000000e000010035000044eb000804e000dc
:101bd800040032000000200001122400308e88002a
:101be800418e8800108e8000218e800018c0b300be
:101bf8000200200003122400f1fa07000000e000b0
:101c0800010035000044eb000804e0000400320045
:101c18000000200001122400108e8800218e880008
:101c2800508e8000618e800018c0b3000200200032
:101c3800031f2400e2fa07000000e000010035005d
:101c48000044eb000804e00002003200254ea80022
:101c580001003700254ea900708e8000818e80001b
:101c680018c0b30002002000031f2400d4fa0700a4
:101c78000000e000010035000044eb000804e0002b
:101c88000200320064cea8000100370064cea9002b
:101c9800708e8000818e8000eefa07008044780004
:101ca800908e8000a18e8000eafa07000044780038
:101cb800508e8000618e8000e6fa07008040780030
:101cc8006600470009487800670047000848780020
:101cd8006800470001487800660047000001780066
:101ce8003100200000032000f2040700b08d8000be
:101cf800c18d800002002000831c2400b0fa070078
:101d08000000e00009003a00f08d8000018e80009c
:101d180002002000831c2400a9fa07000000e0004c
:101d280002003a0064eea800d5fe370064eea90070
:101d3800d3fe37000000fa000bd0bf000080fb0084
:101d4800cf80de00b200200003002000820f500088
:101d5800838f580060003e00000601000b0037002a
:101d6800140037001d00370027003700280037000f
:101d780031003700320037003b0037003c003700a5
:101d88004600370047003700510037001830ef0091
:101d98001a30ef000041eb006000b800650307004f
:101da80012c0b3006000b8006203070010c0b3009f
:101db8000bf0b700c2808000d3808000803e2000f6
:101dc80001002000800f5100818f59004500360026
:101dd80020c0b3000bf0b700430037000041eb0010
:101de80000002000011a24005203070012c0b300ab
:101df80000002000011a24004e03070030c0b30081
:101e08000bf0b700380037006100070036003700d4
:101e18000041eb00000020000117240045030700e3
:101e280012c0b3006000b8004203070050c0b300fe
:101e38000bf0b7002c003700550007002a003700c8
:101e48000041eb006000b8003a03070012c0b3007d
:101e580000002000011724003603070070c0b300fb
:101e68000bf0b70020003700490007001e003700bc
:101e78000041eb0000002000011724002d0307009b
:101e880012c0b3000000200001172c00290307002e
:101e980090c0b3000bf0b700130037003c000700f8
:101ea800110037000041eb000000200001172c0052
:101eb8002003070012c0b30000002000011724000f
:101ec8001c030700b0c0b3000bf0b70006003700d2
:101ed8002f000700040037000b70ef00000000001f
:101ee80001003700000000000080fa000000060032
:101ef8000a00fa00c2808000d3808000028fbe00f2
:101f0800b5002100954278001e0078009e009000e0
:101f18004808de00004278001e0078009e0090000d
:101f28004008de00804178001e0078009e00900086
:101f38004809dd004800de0000007100c808de0026
:101f4800004178001e007800804078006400470057
:101f58000548780065004700044878006600470097
:101f68000348780067004700024878006800470087
:101f78000148780064004700000178005100200003
:101f8800000520004b0407000080fa00000006004e
:101f98000200fa00881f78000040eb00004f78002c
:101fa8000bd0bf00e24f500003003a000bd0bf0037
:101fb800e34f500044003200508e8000618e800054
:101fc80018c0b3000200200043232400fcf90700d6
:101fd8000000e000010035000044eb000804e000c8
:101fe80016003200908e8000a18e800018c0b300c9
:101ff80002002000031f2400f3f907000000e0009e
:1020080001003c000044eb000804e0000b00320033
:10201800708e8000818e800018c0b30002002000fe
:10202800031f2400e8f907000000e00001003c005d
:102038000044eb000804e00021003a00108e800004
:10204800218e800018c0b300020020000314240071
:10205800dbf907000000e000010034000044eb0059
:102068000804e0000b003200708e8000818e800032
:1020780018c0b30002002000c3202400d2f90700d2
:102088000000e00001003c000044eb000804e00010
:102098000b003a00108e8000218e800018c0b3001b
:1020a8000200200003142400c5f907000000e00026
:1020b800010034000044eb000804e0000200320094
:1020c80020c0b300004f78000bd0bf00e24f500093
:1020d800030032000bd0bf00e34f500045003a0028
:1020e800508e8000618e800018c0b300020020006e
:1020f80043262400b2f907000000e0000100350083
:102108000044eb000804e00016003200908e8000c6
:10211800a18e800018c0b300020020000323240011
:10212800a9f907000000e00001003c000044eb00b2
:102138000804e0000b003200708e8000818e800061
:1021480018c0b30002002000032324009ef90700f2
:102158000000e00001003c000044eb000804e0003f
:1021680021003a00108e8000218e800018c0b30034
:10217800020020000320240091f907000000e0007d
:10218800010035000044eb000804e0000b003200b9
:10219800708e8000818e800018c0b300020020007d
:1021a8000323240088f907000000e00001003c0038
:1021b8000044eb000804e0000b003a00108e800099
:1021c800218e800018c0b30002002000031b2400e9
:1021d8007bf907000000e000010034000044eb0038
:1021e8000804e0000300320050c0b300004f78003c
:1021f800e10037000bd0bf00e24f5000030032006f
:102208000bd0bf00e34f500045003a00508e8000cd
:10221800618e800018c0b300020020000323240050
:1022280069f907000000e00001003c000044eb00f1
:102238000804e00016003200908e8000a18e800015
:1022480018c0b30002002000032324005ef9070031
:102258000000e00001003c000044eb000804e0003e
:102268000b003200708e8000818e800018c0b30091
:10227800020020004326240051f907000000e00076
:10228800010035000044eb000804e00021003a009a
:10229800508e8000618e800018c0b30002002000bc
:1022a8000323240048f907000000e00001003c0077
:1022b8000044eb000804e00019003200308e800072
:1022c800418e800018c0b3000200200003202400c3
:1022d8003bf907000000e000010035000044eb0076
:1022e8000804e0000b003a00308e8000418e800028
:1022f80018c0b30002002000031b240030f90700b7
:102308000000e000010034000044eb000804e00095
:102318000300320040c0b300004f78009600370039
:102328000bd0bf00e24f500003003a000bd0bf00b3
:10233800e34f500045003200508e8000618e8000cf
:1023480018c0b30002002000031f24001ef9070074
:102358000000e00001003c000044eb000804e0003d
:1023680016003200908e8000a18e800018c0b30045
:1023780002002000031f240013f907000000e000fa
:1023880001003c000044eb000804e0000b003200b0
:10239800708e8000818e800018c0b300020020007b
:1023a8004323240006f907000000e000010035007f
:1023b8000044eb000804e00021003a00508e800041
:1023c800618e800018c0b30002002000c3202400e2
:1023d800fdf807000000e00001003c000044eb00ad
:1023e8000804e0000b003200308e8000418e80002f
:1023f80018c0b3000200200003142400f0f80700fe
:102408000000e000010034000044eb000804e00094
:102418000b003a00308e8000418e800018c0b30057
:102428000200200003142400e5f807000000e00083
:10243800010034000044eb000804e000030032000f
:1024480010c0b300004f78004b003700908e80001a
:10245800a18e800018c0b300020020004321240090
:10246800d7f807000000e000010035000044eb0049
:102478000804e000090032000bd0bf00e24f500012
:1024880003003a000bd0bf00e34f500003003200b6
:1024980030c0b300004f780037003700908e8000be
:1024a800a18e800018c0b30002002000c3232400be
:1024b800c3f807000000e000010035000044eb000d
:1024c8000804e000090032000bd0bf00e24f5000c2
:1024d800030032000bd0bf00e34f500003003a0066
:1024e80060c0b300004f780023003700508e800092
:1024f800618e800018c0b30002002000432324002e
:10250800b1f807000000e00001003c000044eb00c7
:102518000804e00018003200908e8000a18e800030
:1025280018c0b30002002000c3252400a6f8070045
:102538000000e00001003c000044eb000804e0005b
:102548000d003200708e8000818e800018c0b300ac
:1025580002002000432324009bf807000000e0004d
:1025680001003c000044eb000804e00002003200d7
:102578000040eb00004f78001e4078000004e000a7
:1025880003003a0020c0b3000af0b7002a00370061
:102598001e407800e24f5000030032001e407800d1
:1025a800e54f500003003a0040c0b3000af0b700fe
:1025b800210037001e407800e14f50000300320030
:1025c8001e407800e44f500003003a0060c0b3009a
:1025d8000af0b700180037001e407800e34f50009b
:1025e800030032001e407800e64f500012003a0007
:1025f800148e8000258e8000308e8000418e8000f1
:1026080018c0b3000001be000400be006ef8070049
:102618000000e00001003d000044eb000804e00079
:1026280003003200a0c0b3000af0b7000200370070
:1026380080c0b3000af0b7000ad0bf008080fb005a
:102648000bd0bf000080fb000000e900808f500025
:10265800030032000ad0bf000bf0b70024fe0700c9
:102668004f0478000080fa00000006000000fa001d
:102678001160800080ff2f000080600010608800db
:1026880000fa20002060880023aca800238ca80052
:1026980011618000f03f2f000080600000a0a000c2
:1026a800106188003000200020618800c3aca800b9
:1026b800c38ca80011668000f03f2f0000806000e6
:1026c80000a0a00010668800300020002066880066
:1026d80001eca8000080fa00000006000600fa00dd
:1026e800881f7800008fbe00640047000208780049
:1026f80018c0b3006011b8001e0078009e0090005a
:1027080031f807000000e00001003c000044eb0045
:102718000804e0002a003200640047001000780036
:10272800e10f500011003a001e0178009e01900050
:10273800b28d8800c38d880023cca90015eea800af
:1027480023eca800b08d8000c18d8000020020001d
:10275800032224003efa0700cd0207003df80700d7
:1027680000007800306188004800370064004700a6
:10277800100078000000e00044003a001e017800d4
:102788009e019000f28d8800038e8800c3cca900ba
:1027980024eea800c3eca800f08d8000018e800014
:1027a800020020000322240029fa0700b8020700cb
:1027b80028f80700000078003066880033003700ea
:1027c80018c0b3006011b8001e0078009e00900089
:1027d800fbf707000000e000010035000044eb00b3
:1027e8000804e00029003200640047001000780067
:1027f800e10f500011003a001e0178009e01900080
:10280800b28d8800c38d880023eca90015cea800de
:1028180023cca800b08d8000c18d8000020020006c
:10282800032224000afa07009902070009f80700a2
:102838000000780030618800140037006400470009
:10284800100078000000e00010003a001e01780037
:102858009e019000f28d8800038e8800c3eca900c9
:1028680024cea800c3cca800f08d8000018e800083
:102878000200200003222400f5f907008402070063
:10288800f4f7070000007800306688004f047800ed
:102898000080fa00000006000000fa00889fbe00d1
:1028a8008a9fbe00f48d8000058e8000d08d800048
:1028b800e18d800018c0b3000001be000400be0016
:1028c800bff707000000e000010035000044eb00fe
:1028d8000804e0000e003200d88d8000e98d8000e9
:1028e800fa8d80000b8e8000508180008000eb0004
:1028f800f3f707000001be000a00be0010f8070049
:102908000801be0092020700f08d8800018e880041
:10291800f48d8000058e8000d08d8000e18d8000d0
:1029280018c0b3000001be000400be00a6f70700ef
:102938000000e00001003c000044eb000804e00057
:102948000e003200d88d8000e98d8000fa8d80005d
:102958000b8e8000508180008000eb00d8f70700c4
:102968000001be000a00be00ecf707000801be0027
:102978005d020700f08d8800018e8800f08d8000d0
:10298800018e800018c0b3006011b8008ef70700f0
:102998000000e00001003c000044eb000804e000f7
:1029a80004003200c3cca90024eea800c3eca800a0
:1029b80003003700c3eca90024cea800c3cca800ac
:1029c800f08d8000018e8000310207000200200097
:1029d800032224009ef907009ef7070000007800f4
:1029e80030668800b48d8000c58d8000908d800091
:1029f800a18d800018c0b3000001be000400be0015
:102a08006ff707000000e000010035000044eb000c
:102a18000804e0000e003200988d8000a98d800027
:102a2800ba8d8000cb8d8000508180008000eb0043
:102a3800a3f707000001be000a00be00c0f70700a8
:102a48000801be0042020700b08d8800c18d8800d1
:102a5800b48d8000c58d8000908d8000a18d800090
:102a680018c0b3000001be000400be0056f70700fe
:102a78000000e00001003c000044eb000804e00016
:102a88000e003200988d8000a98d8000ba8d8000dc
:102a9800cb8d8000508180008000eb0088f7070014
:102aa8000001be000a00be009cf707000801be0036
:102ab8000d020700b08d8800c18d8800b08d8000a0
:102ac800c18d800018c0b3006011b8003ef7070040
:102ad8000000e00001003c000044eb000804e000b6
:102ae8000400320023cca90015eea80023eca800ae
:102af8000300370023eca90015cea80023cca800ba
:102b0800b08d8000c18d8000e10107000200200027
:102b1800032224004ef907004ef707000000780052
:102b2800306188004f05be004f04be000080fa00e7
:102b3800000006000600fa00008fbe00640047008f
:102b4800024878006400470010407800e14f5000c8
:102b580005003a001e0178009e019000928d8800c1
:102b6800a38d8800040037001e0178009e019000a4
:102b7800d28d8800e38d88000080fa0000000600ee
:102b88000000fa0013e1a90011e1a9001061a800f2
:102b98001021a90081088000f0fc2f00008060004f
:102ba800800888000a21ef000621ef00b0be20004f
:102bb8007008880000202c006008880021428000ee
:102bc80080ff2f00008060000000a00020428800e5
:102bd8000108a9002108a80011e1a8000080fa0056
:102be800000006000000fa0000002800013224005e
:102bf8008600070005e1a9000421a9000068a900d2
:102c08002068a80005e1a8000080fa00000006007e
:102c18000000fa0000002000a14724000700070078
:102c28001fe1a9001e21a9000368a9002368a800c4
:102c38001fe1a8000080fa00000006000400fa0066
:102c4800881f7800008fbe00f1088000f0fc2f007c
:102c580000806000f00888001e0178009e01900046
:102c68000068290081c124001af8070018c0b300c1
:102c780002f02f00f3772400d3f607000000e000ed
:102c880001003c000044eb000804e000540032005e
:102c9800f1088000f0fc2f00008060000040a000d8
:102ca800f00888001e0178009e0190000068290045
:102cb80081c1240007f80700020020000310240047
:102cc80004f8070018c0b30002f02f00f3772400bf
:102cd800bdf607000000e00001003c000044eb00e6
:102ce8000804e00032003200f1088000f0fc2f00f8
:102cf800008060000050a000f00888001e017800e5
:102d08009e0190000068290081c12400f1f70700a6
:102d18000200200003282400eef7070018c0b300c3
:102d280002f02f00f3772400a7f607000000e00068
:102d380001003c000044eb000804e00010003200f1
:102d4800f10880000003200001007000f0088800ee
:102d58001e0178009e0190000068290081c12400ae
:102d6800dcf707000200200003382400d9f7070029
:102d780097f6070000007800d00888002000370088
:102d88001e0178009e0190000068290081c124007e
:102d9800d0f707000200200003282400cdf7070021
:102da8008bf6070000007800d00888001400370070
:102db8001e0178009e0190000068290081c124004e
:102dc800c4f707000200200003102400c1f7070021
:102dd8007ff6070000007800d00888000800370058
:102de8001e0178009e0190000068290081c124001e
:102df800b8f7070076f6070000007800d0088800ca
:102e08004f0478000080fa00000006000400fa0071
:102e1800881f7800008fbe0021088000f0fc2f007a
:102e280000806000200888001e0178009e01900044
:102e38000068290081c12400a6f7070018c0b30064
:102e480002f02f00f37724005ff607000000e0008f
:102e580001003c000044eb000804e000540032008c
:102e680021088000f0fc2f00008060000040a000d6
:102e7800200888001e0178009e0190000068290043
:102e880081c1240093f707000200200003102400ea
:102e980090f7070018c0b30002f02f00f377240062
:102ea80049f607000000e00001003c000044eb0088
:102eb8000804e0003200320021088000f0fc2f00f6
:102ec800008060000050a000200888001e017800e3
:102ed8009e0190000068290081c124007df7070049
:102ee80002002000032824007af7070018c0b30066
:102ef80002f02f00f377240033f607000000e0000b
:102f080001003c000044eb000804e000100032001f
:102f180021088000000320000100700020088800bc
:102f28001e0178009e0190000068290081c12400dc
:102f380068f70700020020000338240065f707003f
:102f480023f60700000078001008880020003700ea
:102f58001e0178009e0190000068290081c12400ac
:102f68005cf70700020020000328240059f7070037
:102f780017f60700000078001008880014003700d2
:102f88001e0178009e0190000068290081c124007c
:102f980050f7070002002000031024004df7070037
:102fa8000bf60700000078001008880008003700ba
:102fb8001e0178009e0190000068290081c124004c
:102fc80044f7070002f607000000780010088800a0
:102fd8004f0478000080fa00000006000a00fa009a
:102fe800e40147008009780066004700010878007e
:102ff80068004700020878000040eb00004f7800a6
:10300800e0cfb3001e4f680064004700100078004e
:103018004880de00004078001e4f680064004700ca
:1030280010007800004078001e4f680066004700d6
:10303800100078004880de00004078001e4f6800cd
:103048006600470010007800004078001e4f6800b6
:103058008000eb000e80e800010878000c003700c3
:103068000e80e800900078006800470010007800a3
:1030780001004000104078001e4f68000e80e800f4
:10308800100078008000e8000e80e8000108780051
:103098000e80e80090007800660047001000780075
:1030a800808f5000eeff35001e4078000080fa0047
:1030b800000006000e00fa00889fbe00e8014700e5
:1030c800800978006a004700010878006c00470012
:1030d800020878000f0478000f0078008004780058
:1030e8006a00470010007800660040000001e9000f
:1030f800e4004700820878000000e8000000e800cb
:103108000000d100800040000f0078008187470050
:103118000000e8000000d10000004000e600470081
:10312800800878000000eb00000f78006600470078
:10313800100078001e004000e1cfb300014878007d
:103148001e0fe80068004700100078004880de0085
:103158008040780066004700100078001e0040009c
:10316800014878001e0fe80068004700100078004a
:103178008040780066004700100078001e0040007c
:10318800014878001e0fe8006a0047001000780028
:103198004880de0080407800660047001000780014
:1031a8001e004000014878001e0fe8006a00470032
:1031b8001000780080407800660047001000780012
:1031c8001e004000014878001e0fe8008000eb0058
:1031d8000e80e80001087800100037000e80e80033
:1031e800900078006c004700100078000100400053
:1031f8009040780066004700100078001e004000ec
:10320800014878001e0fe8000e80e80010007800e2
:103218008000e8000e80e800010878000e80e800d1
:10322800900078006a00470010007800808f5000f6
:10323800eaff35006c004700100178006a0047007b
:1032480090007800680047001000780063ff0700ce
:10325800e6004700910078009e8040008048780092
:103268001e0fe8001e00e800e60047001101780084
:103278008000780002007800920007008907780033
:10328800880778004f04be000080fa00000006009e
:103298000400fa00881f7800008fbe0018c0b30031
:1032a8006011b8001e0078009e00900046f50700e7
:1032b8000000e00001003d000044eb000804e000cd
:1032c800030032001e0078009e00900003003700c3
:1032d8001e0078009e00900001f0a2004f047800c4
:1032e8000080fa00000006000800fa00881f780035
:1032f800008fbe00640047000288be0018c0b300fb
:103308006400470010017800900190001e007800ca
:103318009e0090002cf507000000e00001003c0032
:103328000044eb000804e000030032001e007800af
:103338009e00900003003700640047009000900052
:10334800100078004f0478000080fa0000000600a2
:103358000800fa00881f7800008fbe00640047004c
:103368000288be0018c0b30064004700100178004e
:10337800900190001e0078009e00900010f5070054
:103388000000e000010035000044eb000804e00004
:10339800030032001e0078009e00900003003700f2
:1033a8006400470090009000100078004f047800f7
:1033b8000080fa00000006000c00fa00881f780060
:1033c800008fbe00640047000288be006800470006
:1033d8000488be0018c0b3006800470010017800d8
:1033e800900190001e0078009e009000f6f40700ff
:1033f8000000e00001003c000044eb000804e0008d
:103408000400320068004700301f78002017780059
:103418000f00370018c0b30064004700100178009f
:10342800900190001e0078009e009000e4f40700d0
:103438000000e000010035000044eb000804e00053
:103448000300320064004700301f7800201778001e
:103458001e0078009e0090004f0478000080fa005b
:10346800000006000400fa00008fbe00b2fd200034
:10347800930424001e0078009e00900015f60700b3
:103488000200200043332400f1f607000080fa0010
:10349800000006000400fa00008fbe00b2fd200004
:1034a800930424001e0078009e009000e8f60700b0
:1034b800020020004333240006f607000080fa00cb
:1034c800000006000600fa000e81e80000097800f6
:1034d80064004700010878000040eb00004f7800c6
:1034e8005d000700e400470091007800810f50005c
:1034f800130034000040eb00004f7800070037004d
:103508001e80fb008e80e80091007800008040005b
:10351800104078000c0007001e4fe8001e80fb00da
:10352800e400470091007800810f5000f4ff350057
:103538002e0007000004e00001003a002200070006
:103548000080fa00000006000200fa00004f780030
:103558000181800000032100010040001e4878001e
:10356800008180000000e80000818800018180005f
:10357800f0072000808f5000010034002030ef0059
:103588000080fa00000006000200fa0011818000a5
:103598000003210001004000104f780010818000d6
:1035a8000000e8001081880011818000f0072000e9
:1035b800808f5000010034002230ef001e40780058
:1035c8000080fa00000006000200fa0010c0b300f4
:1035d80024f0b700ecff0700004f78001e80fb00c6
:1035e800201188000080fa00000006000000fa00a0
:1035f80024d0bf000080fa00000006000000fa0096
:103608001181800000818000808f500007003c00fd
:1036180001818000108180000080500000f0a70028
:103628000000ea00f080880008003700118180005f
:10363800008180000080500000f0a7000000ea0030
:103648000108200000805000f0808800f080800091
:103658000080fa00000006000200fa00e7ff0700f9
:1036680001082000008f50001e0078000080fa003a
:10367800000006000000fa0021e3a9002143a80089
:1036880001198000f0cf2f00008060000019880029
:103698002043a90001198000000e200001007000dd
:1036a8000019880011198000f0ff210000806000d7
:1036b800101988002343a80011198000f0cf2f00ab
:1036c80000806000101988001119800030f82f0060
:1036d800008060000040a000101988002203a900a3
:1036e8002223a90025e3a900f0c0b30024e3b70012
:1036f80021198000f00f2e008080600000f020006b
:1037080001007000201988003303a9001e2ea800ac
:103718002e0ea8002f6ea8006f2ea8004feea8004e
:103728003063a80030c3a8003163a80031e3a800c3
:103738002e03a8004119800000fc2f0000806000c3
:103748004019880028e3a90001a8a90021a8a80019
:1037580021e3a8000080fa00000006000000fa003b
:103768002023a8000080fa00000006000000fa00ec
:10377800a01d21000080fa00000006000000fa00e9
:103788002dd0bf000080fa00000006000000fa00fb
:103798002d70ef000080fa00000006000200fa0019
:1037a800004f78002a0007000000e00007003400fe
:1037b80031818000000b2100010040001e48780084
:1037c800308180000000e80030818800318180006d
:1037d800f0072000808f5000010034002630ef00f1
:1037e8000080fa00000006000200fa004181800013
:1037f800000b210001004000104f7800408180003c
:103808000000e8004081880041818000f007200026
:10381800808f5000010034002830ef001e407800ef
:103828000080fa00000006000000fa0031818000e4
:1038380040818000808f50000200320010c0b30029
:10384800010037000040eb000080fa00000006008d
:103858000000fa0004000700010820000080500062
:103868000080fa00000006000200fa0031818000a2
:1038780040818000808f5000040035003181800035
:1038880040818000008f50000500370031818000a2
:10389800408180000080500001082000010f400096
:1038a8001e0078000080fa00000006000000fa0000
:1038b8002002a9000111800090ff2f000080600005
:1038c8000011880020a2a9002062a800500520004d
:1038d8004011880023a2a90023e2a9000188a900b9
:1038e8002188a80011118000f0f32f0000806000eb
:1038f800101188000168a9002168a80021e2a80029
:103908002342a8000080fa00000006000600fa0022
:103918000e81e8000009780064004700010878007b
:103928000040eb00004f78000040eb00004f7800ab
:103938001100370000000000111180000020200055
:10394800008060000000e000fbff3a000e80e80005
:1039580010007800104078000080fb0020118800db
:103968000e80e800100078008000e8000e80e80073
:10397800010878001e4fe8001e80fb00e4004700a5
:1039880091007800810f5000eaff35000080fa00ae
:10399800000006000000fa00f0032000303a88001a
:1039a800213a8000f0f32f0000806000203a880060
:1039b800213a800000fe2f00008060000000a00077
:1039c800203a88001200200080072000a10920006a
:1039d8003374200080497800814978008249780052
:1039e800103a8000000178000200a0006004200066
:1039f80071052000237420008049780081497800ef
:103a08008249780000000000113a80000000270079
:103a18008080600000002100808f5000faff3a008b
:103a280000000000113a80000002200000806000c1
:103a38000000e000fbff32000080fa0000000600f2
:020000040000fa
:103a4800001000000c0000008000000016100000ac
:103a58000800000080000000b01100002a000000eb
:103a6800800000002a100000020000008000000012
:103a7800da1100000a000000800000002c1000008d
:103a880002000000800000003010000080000000ec
:103a9800800000001e1000000800000080000000e8
:103aa800b010000080000000800000002610000018
:103ab80004000000800000003011000080000000b9
:103ac800800000000c1000000a00000080000000c8
:103ad8002e1000000200000080000000000000001e
:020000040000fa
:103ae8000000fa000e2eef001e2eef002e2eef0023
:103af8003e2eef004e2eef005e2eef006e2eef00f2
:103b0800214ea90060cea90060eea90011cea9003f
:103b180011eea90020cea90020eea900612ea80070
:103b2800200ea800216ea800102ea80041eea800c3
:103b38002136800000f82f00008060008001b3006b
:103b4800203688001134800000fc2f0000806000bf
:103b58000000a000103488000080fa000000060071
:020000040000fa
:02000004000af0
:04afe000cfff00009f
:020000040000fa
:02000004000af0
:04afe400ffff00006b
:020000040000fa
:02000004000af0
:04afe8007fff0000e7
:020000040000fa
:02000004000af0
:04afec005fff000003
:020000040000fa
:02000004000af0
:04aff00038ff000026
:020000040000fa
:02000004000af0
:04aff400ffffff005c
:00000001FF
